:020000041000EA
:1000000000B5324B212058609868022188439860DF
:10001000D860186158612E4B002199600221596106
:100020000121F02299502B49196001219960352056
:1000300000F044F80222904214D00621196600F024
:1000400034F8196E01211966002018661A6600F04E
:100050002CF8196E196E196E052000F02FF8012189
:100060000842F9D1002199601B49196000215960AB
:100070001A491B48016001219960EB211966A021F2
:10008000196600F012F800219960164914480160C1
:100090000121996001BC002800D000471248134993
:1000A000086003C880F30888084703B5996A0420EC
:1000B0000142FBD001200142F8D103BD02B5186610
:1000C0001866FFF7F2FF186E186E02BD00000240BE
:1000D000000000180000070000035F00212200005C
:1000E000F4000018222000A00001001008ED00E03C
:1000F00000000000000000000000000074B24E7A12
:1001000000200420F7010010C3010010C5010010F9
:10011000C1010010C1010010C1010010C101001097
:10012000C1010010C1010010C1010010C701001081
:10013000C1010010C1010010C9010010CB01001065
:10014000CD010010CD010010CD010010CD01001037
:10015000CD010010CD010010CD010010CD01001027
:10016000CD010010CD010010CD010010CD01001017
:10017000CD010010CD010010CD010010CD01001007
:10018000CD010010CD010010CD010010CD010010F7
:10019000CD010010CD010010CD010010CD010010E7
:1001A000CD010010CD010010CD010010CD010010D7
:1001B000CD010010CD010010CD010010CD010010C7
:1001C00000BE00BE00BE00BE00BE00BEEFF3058054
:1001D000103800BEF2EB8871C0770010E077001095
:1001E0003402001090A31AE700201F49086006C8D7
:1001F00081F3088810471D48006800282FD10DA4FE
:100200000ECC002902D000F012F8F9E71849194A7B
:10021000002000E001C19142FCD1174988471749ED
:1002200088471749884700BEFDE701C901C29A42C5
:10023000FBD37047E0770010C00000201C1800209E
:100240003C8F001000000420000004203C8F0010B0
:10025000001004200010042000000000704709482E
:1002600003F006FC0047000008ED00E0000000D0AD
:1002700020180020FC270020B5380010B10900101C
:10028000DD3900105756000006005250ABB36053E2
:100290007C75001006005250861C03028C750010FD
:1002A000060052505422A29D9C7500100500525029
:1002B000DE65F4683C8F0010F8B5C04610B5064CFA
:1002C0002378002B07D1054B002B02D0044800E017
:1002D00000BF0123237010BD281B00200000000078
:1002E000D8730010044B10B5002B03D00349044809
:1002F00000E000BF10BDC046000000002C1B002025
:10030000D8730010F0B5DE46454657464E46E0B578
:10031000B34C8BB0200001F051FA8220002102F092
:10032000B7FCB04B98461B78002B00D1A5E0AE4B34
:1003300018009A4607F040F88823AC4E9B46F758C1
:10034000002F00D1B1E0842302AA9146F5581F2264
:1003500069018919484606F05BFE00234A460135CB
:10036000D377EA17920F0333AD181D40AD1A8133CE
:10037000F5505B469E4D013F49462800F75006F078
:1003800011FE504606F0C0FF29002022200001F097
:100390007DFB051E41D0200001F004F982200021E0
:1003A00002F076FC02F074FD002900D183E0FA220D
:1003B0000023920003F0CCFB0500FA26B6000FE004
:1003C000FA220023920003F0C3FB401BB04212D27A
:1003D0006B462000D91D01F05FFB002800D09BE098
:1003E00002F056FD0029EBD1FA21890003F072FBDF
:1003F000401BB042ECD302F04BFD002961D0FA2241
:100400000023920003F0A4FBFA23451B9B009D42AE
:1004100060D2052002F04EFC28E08827754C2000B1
:1004200006F0CAFF744EF359042B19D08023994665
:10043000F3581F2258017149801906F0E9FD4B4617
:10044000F3585A01B218D57703220133D917890F0F
:100450005B1813404A465B1AB350F3590133F3510A
:10046000200006F051FF0023424613700BB0F0BC91
:10047000BB46B246A946A046F0BD5D49604B0A00A6
:1004800061CB61C218681060988890809B792000C9
:100490009371202201F0FAFA051E6FD00123424623
:1004A0001370642002F006FCE0E7514D554B2A0022
:1004B00003CB03C265E7FA21890003F00BFB0500BB
:1004C0007BE7FA21890003F005FBFA23451B9B001B
:1004D0009D429ED38826474C200006F06DFF464D76
:1004E000AB59042BBCD08027EB591F225801464939
:1004F000401906F08DFD0021EB595A01AA18D17759
:1005000003220133D917890F5B1813405B1AEB5193
:10051000AB590133AB51A3E7200000F09BFC8827C7
:100520003A4B0200190020009A4601F00DFB314CB5
:10053000200006F041FF304EF359042B1AD08023DF
:100540009946F3581F2258015146801906F060FD64
:100550004B460021F3585A01B218D17703220133D8
:10056000D917890F5B1813404A465B1AB350F359E9
:100570000133F351200006F0C7FE3CE71D4C20007C
:1005800006F01AFF88231C4A9C46D358042B23D01C
:1005900080239846D3585801801801001C4BC1CBCA
:1005A000C1C1C1CBC1C118680860988888809B7997
:1005B0008B714346D35859015118CD77032101332C
:1005C000D817800F1B180B4041461B1A5350634627
:1005D0006146D35801335350200006F095FE60E782
:1005E000B4250020F5270020902500200C270020AE
:1005F0004026002088250020602600201874001066
:10060000D8730010107400103474001020260020DD
:10061000EC730010F0B5DE4657464E4645460423BF
:10062000E0B587B00222404940480093013B01F009
:1006300029FC3F4B03AA13CB13C23E4B8826984696
:100640003D4B802799463D4B3D4C9B4603239A46A4
:1006500021E0484606F0B0FEA359042B15D0E3591B
:100660001F2258015946201806F0D2FC5146E35982
:100670005A01A2180133D577DA17920F9B180B4055
:100680009B1AE351A3590133A351484606F03CFE9F
:10069000C82002F00FFB404600F04EFF051ED8D0E8
:1006A000284806F089FE8823274EF558002D1ED0D5
:1006B0008423F45800239B4603339A46813399469A
:1006C000224F61011F223800711806F0A1FC5B4621
:1006D00052460134FB77E3179B0FE4181440E41AE9
:1006E0004B46F4508823013DF550002DE9D11548C3
:1006F00006F00AFE00220221404601F021FB2021E3
:10070000404600F055FB404603A901F04BFA122287
:10071000404601216A4401F055FA404601F04EF886
:10072000FFF7F0FDFCE7C04600C00340C0270020F3
:10073000A4740010B4250020882500204C740010FB
:1007400060260020902500200C2700204026002055
:10075000F0B54646D6464F46834BC0B5180098467E
:1007600006F02AFE8823814D9946EE58002E00D1CE
:10077000B6E08423EC587E4F61011F2249193800EE
:100780009A4606F045FC00230134E217920FA418A4
:10079000FB7703331C405346A41AEC504B46013EF2
:1007A000EE50744E3900300006F0FCFB404606F077
:1007B000ABFD002005F026FA002800D0A2E002F0F0
:1007C00067FB002900D185E0FA220023920003F0A4
:1007D000BFF90400FA250027AD000CE0FA2200233F
:1007E000920003F0B5F9001BA8420FD2002005F0DB
:1007F00021FA002840D102F04BFB0029EED1FA216A
:10080000890003F067F9001BA842EFD3002F3CD109
:10081000002005F00FFA002800D077E08826564D1A
:10082000280006F0C9FD554CA359042B19D080238C
:100830009846E3581F2258015149001906F0E8FB79
:100840004346E3585A01A218D77703220133D91738
:10085000890F5B18134042465B1AA350A35901331A
:10086000A351280006F050FD002002F023FAE0BC5E
:10087000BA46B146A846F0BD03F0D6FDC0B2F05569
:1008800001370A286DD0202FB5D188273A4D28008E
:1008900006F092FD394CE359042BE2D080239846B0
:1008A000E3581F2258013100001906F0B1FB4346FE
:1008B0000021E3585A01A218D17703220133D91736
:1008C000890F5B18134042465B1AA350E35901336A
:1008D000E351C6E7FA21890003F0FCF8040079E748
:1008E000244E284B320013CB13C219884046118086
:1008F0009B78937006F008FD002005F083F900282E
:1009000000D15CE7300003F055FD58E7002005F00A
:1009100079F9002821D18826174D280006F04CFDD2
:10092000164CA359042B9CD08027E3591F22580151
:100930001549001906F06CFB0021E3595A01A21871
:10094000D17703220133D917890F5B1813405B1A43
:10095000E351A3590133A35183E70C4803F02AFD67
:10096000D9E70023F35590E7882500206026002072
:10097000EC26002098270020902500200C2700203E
:100980007C7400106C740010107400108C740010D3
:1009900010B502E00A3002F08DF9002005F032F9BE
:1009A0000028F7D0FFF7D4FEFFF7D2FEFAE7C046E3
:1009B00010B503F035FD054801F04AFE044801F08A
:1009C00047FE044805F0D0FFFFF724FE90250020E5
:1009D000882500209109001010B5054801F03CFA67
:1009E00005220621034B044800F0C4F910BDC0469F
:1009F000C027002080969800B4250020F8B5CE4688
:100A00004746060080B50C008168006898461700CC
:100A100001F062FA0021707901F00AFA0021306ECB
:100A200002F036F91F224346224020240133DBB274
:100A3000224399462D2443463100300032555A1E38
:100A40002D312E30D2B2002B2ED07D1C451B2B3CDD
:100A5000AC42A44108259542AD4164426D42254215
:100A60003AD03C000443A30736D143469B089C463A
:100A7000002400257B590134E4B243510435A445D8
:100A8000F8D103244546A543541B7F194019E4B20D
:100A9000A84509D03A780270002C05D07A784270C7
:100AA000012C01D0BA78827032004B4630680C328B
:100AB00001F00CFA4E23327B0121F254707901F0DF
:100AC000B7F9306E002102F0E3F8306801F020FA47
:100AD000C0BCB946B046F8BD0022BC5C84540132AB
:100AE000D4B2A045F9D1DFE7F8B557464546DE4612
:100AF0004E469A465A23E0B5C35C04000D00002B15
:100B000000D078E04F33C75C3E1C974200D97EE0AE
:100B1000F6B2BB1BDBB29846A168206801F0DCF995
:100B20000021607901F084F90021206E02F0B0F814
:100B30002D23504621002D2299460137FBB22E313C
:100B4000A054701E9B46A1440B00C0B2002E30D0B2
:100B50000A0003232A4313405A4253416A1C8A1A4B
:100B6000944602226245924152421A4257D00828C6
:100B700055D9B3089C4600220023EF580132D2B267
:100B8000CF5004339445F8D1032332009A43130025
:100B9000C01AAD18C0B28A189E4209D02B781370C3
:100BA000002805D06B785370012801D0AB78937082
:100BB0008B194246002A03D00021180003F0BAFA2C
:100BC00022005B46494620680C3201F07FF94E2333
:100BD000227B0121E254607901F02AF90021206E84
:100BE00002F056F8206801F093F9F0BCBB46B2461B
:100BF000A946A046F8BD53425341DBB29846161CA5
:100C0000202A06D84346F6B2F718FFB284E7161C2E
:100C10007EE720264346F6B2F718FFB27CE70023B2
:100C2000EA5CCA540133DAB29642F9D1C0E7C04651
:100C3000F8B5CE4647465A2380B5C35C04000D0084
:100C4000002B00D081E04F33C75C3E1C974200D997
:100C500081E0F6B2A168206801F03EF900216079D8
:100C600001F0E6F8206E002102F012F82D239946DB
:100C70007B1CDBB2984620002D236122A1442E303C
:100C8000E254002F03D03A00FF2103F053FA220070
:100C900043460C324946206801F018F94E23227B66
:100CA000E254002E42D02100721E0D31D0B20B0052
:100CB0009046002838D02B0003220B431A405342A1
:100CC0005A4123000E33EB1A9C46022363459B4195
:100CD0005B42134245D0023E082E42D90023002237
:100CE00086088F580133DBB2AF5004329E42F8D1F0
:100CF000032302009A431300AE188A189446C21ABE
:100D0000D2B298420CD063461B783370012A07D0C8
:100D100063465B787370022A02D063469B78B37097
:100D20004346DBB2ED18CB181B782B70607901219C
:100D300001F07EF80021206E01F0AAFF206801F08A
:100D4000E7F8C0BCB946B046F8BD161C202A04D846
:100D5000F6B237007EE7161C7BE72026F6B2370096
:100D600078E70023CA5CEA540133DAB29042F9D141
:100D7000D6E7C0460171427120214F228360815421
:100D8000002110B5012407328152513A59314254A1
:100D900001314454002102664B328154024A93428D
:100DA00001D8024B836010BDB8880000809698007F
:100DB000F8B5DE4657464E4645460400E0B50B1CE6
:100DC000202941D9202320264F22A3542D239B469E
:100DD000213B9A46213399462023112598462E27F8
:100DE000A344A24401E04F23E65CA168206801F01F
:100DF00073F80021607901F01BF80021206E01F0EA
:100E000047FF43464A462B43A354E6550223524626
:100E10005946206801F05AF84E23227B0121E25402
:100E2000607901F005F801350021206E01F030FFF6
:100E3000EDB2206801F06CF8172DD4D1F0BCBB46A0
:100E4000B246A946A046F8BDCEB2002EBCD10123C1
:100E50000136B9E74F23C05C7047C046F0B5DE46A7
:100E600057464E4645460400E0B5052083B001F0E4
:100E700021FFA168206801F02FF80021607900F0BF
:100E8000D7FF0021206E01F003FF2D2399464A462B
:100E9000093BA3540A3398462500424626004E27B4
:100EA00031332D350C36A3542900320020685D3BC8
:100EB00001F00CF8237B0121E355607900F0B8FFC5
:100EC0000021206E01F0E4FE206801F021F8A16805
:100ED000206801F001F80021607900F0A9FF0021ED
:100EE000206E01F0D5FE06239B464B465A46E2543F
:100EF000D2339A4643465246E254290032002068D3
:100F00002C3B00F0E3FF237B0121E355637B6079F9
:100F1000019300F08DFF0021206E01F0B9FE2068E2
:100F200000F0F6FF8C235B00E365A168206800F009
:100F3000D3FF0021607900F07BFF0021206E01F0DB
:100F4000A7FE26234946019A635402339A431300AD
:100F50004246A354290032000223206800F0B6FF65
:100F6000237B0121E355607900F062FF0021206EB0
:100F700001F08EFE206800F0CBFFA168206800F031
:100F8000ABFF0021607900F053FF0021206E01F0DB
:100F90007FFE5A464B46E25443465246E2542900ED
:100FA000320020682C3B00F091FF237B0121E355A8
:100FB000607900F03DFF0021206E01F069FE20689D
:100FC00000F0A6FFA168206800F086FF002160798C
:100FD00000F02EFF0021206E01F05AFE1D239B46DB
:100FE0004B465A46E25443465246E25429003200E8
:100FF00020682C3B00F06AFF237BE355617B60791E
:101000000191012100F014FF0021206E01F040FE4B
:10101000206800F07DFFA168206800F05DFF0021DE
:10102000607900F005FF0021206E01F031FE5021B3
:10103000206800F039FFE0557321206800F034FF8C
:101040000121607900F0F4FE0021206E01F020FE05
:10105000206800F05DFFA168206800F03DFF0021DE
:10106000607900F0E5FE0021206E01F011FE4B4694
:101070005A46E25443465246E25429003200206860
:101080002C3B00F023FF237B0121E355637B607938
:10109000984600F0CDFE0021206E01F0F9FD206899
:1010A00000F036FF434601995B1A5A4253415622DB
:1010B000A3544346002B28D0884500D119E2A168EB
:1010C000206800F009FF0021607900F0B1FE0021E6
:1010D000206E01F0DDFD2D233D22E254002201337C
:1010E000E2542900320020682C3B00F0EFFE4E2332
:1010F000227B0121E254607900F09AFE206E0021EB
:1011000001F0C6FD206800F003FF00239A46524616
:101110005833E254A168206800F0DEFE00216079B7
:1011200000F086FE0021206E01F0B2FD2D239946CD
:101130004A460F33A35452464E270E3BE25498467C
:101140003200290020682C3B00F0C0FE237B0121E7
:10115000E355607900F06CFE0021206E01F098FDEF
:10116000206800F0D5FE52465A23A168E254206858
:1011700000F0B2FE0021607900F05AFE0021206EDE
:1011800001F086FD21234A46A35442461E33A35450
:101190002900320020683D3B00F098FE237B0121AE
:1011A000E355607900F044FE0021206E01F070FDEF
:1011B000206800F0ADFEA168206800F08DFE0021DF
:1011C000607900F035FE0021206E01F061FD2223E0
:1011D0004A46A35442461F3BA354290032002068CC
:1011E000013B00F073FE237B0121E355607900F0A1
:1011F0001FFE0021206E01F04BFD206800F088FEEC
:101200004F232022E2542F3B98460D339A46202349
:101210003D3F9B4602E04F23E35C9846A16820686F
:1012200000F05AFE0021607900F002FE0021206EDD
:1012300001F02EFD5B4652463B43A3542E2342460B
:10124000E25429003200206899462C3B00F03EFE13
:101250004E2398464246237B0121A354607900F037
:10126000E7FD01370021206E01F012FDFFB220687A
:1012700000F04EFE172FCED1A168206800F02CFEA2
:101280000021607900F0D4FD0021206E01F000FD06
:1012900023235246A3544A46203BA354290032003C
:1012A0002068013B00F012FE4246237B0121A3543B
:1012B000607900F0BDFD0021206E01F0E9FC20689E
:1012C00000F026FE59230522E254A168206800F0B0
:1012D00003FE0021607900F0ABFD0021206E01F0DB
:1012E000D7FC25235246A3544A462733A35429004A
:1012F000320020684A3B00F0E9FD4246237B012191
:10130000A354607900F094FD0021206E01F0C0FC30
:10131000206800F0FDFDA168206800F0DDFD0021DF
:10132000607900F085FD0021206E01F0B1FC2723DB
:101330005246A3544A464933A35429003200206838
:101340006E3B00F0C3FD4246237B0121A35460792C
:1013500000F06EFD0021206E01F09AFC206800F084
:10136000D7FDA168206800F0B7FD0021607900F08A
:101370005FFD0021206E01F08BFCE221206800F06F
:1013800093FD4346E0540121607900F051FD0021B6
:10139000206E01F07DFC206800F0BAFDA168206895
:1013A00000F09AFD0021607900F042FD0021206EDE
:1013B00001F06EFCE121206800F076FD4346E05428
:1013C0000121607900F034FD0021206E01F060FC05
:1013D000206800F09DFDA168206800F07DFD0021DF
:1013E000607900F025FD0021206E01F051FC53468C
:1013F0002022E2540C234A46A354290032002068DC
:101400000A3B00F063FD4246237B0121A35460792F
:1014100000F00EFD0021206E01F03AFC206800F083
:1014200077FDA168206800F057FD0021607900F089
:10143000FFFC0021206E01F02BFC00235246A35438
:101440004A46FF33A354290032002068FD3B00F0D8
:101450003DFD4246237B0121A3546079677B00F068
:10146000E7FC206E002101F013FC206800F050FD25
:10147000BB070CD55523E7540E3F7B425F41F8B2C2
:1014800003B0F0BCBB46B246A946A046F0BD02235D
:101490001F435523FFB2E754A16820689B4600F024
:1014A0001BFD0021607900F0C3FC0021206E01F0DB
:1014B000EFFB53462022E2544B46E754320002230E
:1014C0002900206800F002FD4246237B0121A3543D
:1014D000607900F0ADFC0021206E01F0D9FB20689E
:1014E00000F016FD0021134801F0D2FB5B46E75CDB
:1014F000C2E7A168206800F0EFFC6079002100F0ED
:1015000097FC206E002101F0C3FB5021206800F001
:10151000CBFCE0557321206800F0C6FC6079012106
:1015200000F086FC206E002101F0B2FB206800F084
:10153000EFFCC4E58813000070B50400082002F039
:1015400005FE050000F088FC28001549256000F024
:1015500089FC2379FF2B20D06079FF281DD083429E
:1015600010D01800012100F053FC6079012100F037
:101570004FFC23796079834204D01800002100F0E9
:1015800057FC6079012100F053FC206E002101F02E
:101590007FFB2000FFF762FC00E0002070BDC0462A
:1015A00000C00340F0B55746DE464E464546E0B51E
:1015B0005527C35D040083B09A0700D4C9E0050035
:1015C00006002D350C3601271F435523E754A1682B
:1015D000206800F081FC0021607900F029FC0021E6
:1015E000206E01F055FB2D2399464A460D3BA3542E
:1015F0000E33E7544E2732009846290020682C3BD2
:1016000000F064FC237B0121E355607900F010FCBD
:101610000021206E01F03CFB206800F079FCA168FD
:10162000206800F059FC0021607900F001FC0021E5
:10163000206E01F02DFB27234A46A354424649332E
:10164000A3542900320020686E3B00F03FFC237B4E
:101650000121E355607900F0EBFB0021206E01F0E1
:1016600017FB206800F054FC20796379834202D094
:10167000012100F0DDFB5727E35D9846002B0ED0DB
:10168000592322000A212000E35C5032FFF7B6F90B
:1016900003B0F0BCBB46B246A946A046F0BDA16867
:1016A000206800F019FC0021607900F0C1FB0021E6
:1016B000206E01F0EDFA2D239B465A462B3BA35496
:1016C0002C339A465246D133A35429003200206865
:1016D000FD3B00F0FBFB4E2399464A46237B01214C
:1016E000A354637B6079019300F0A2FB0021206E7C
:1016F00001F0CEFA206800F00BFCA168206800F031
:10170000EBFB0021607900F093FB0021206E01F0DB
:10171000BFFA22235946019A6354213B9A4313008E
:101720005246A354290002233200206800F0CEFB69
:101730004A46237B0121A354607900F079FB002104
:10174000206E01F0A5FA206800F0E2FB4346E35565
:101750009EE702261E43F6B2C6558168006800F077
:10176000BBFB0021607900F063FB0021206E01F0DB
:101770008FFA2D232022E2540133E654250026005F
:101780002D350C363200290020682C3B00F09EFBE2
:101790004E23227B0121E254607900F049FB0021B5
:1017A000206E01F075FA206800F0B2FB00210248BB
:1017B00001F06EFAE35D06E788130000F0B5D64647
:1017C0004F4646460400C0B563790079834202D093
:1017D000002100F02DFBE36D1800D91701F058FA35
:1017E0005823E35C002B00D083E055230122E55C05
:1017F00026009543E554A168206800F06DFB0021A8
:10180000607900F015FB0021206E01F041FA2D23D4
:101810009A46524627000D3BA3540E33E5544E25FD
:101820002D360C373A009846310020682C3B00F0EA
:101830004DFB237B01216355607900F0F9FA00210B
:10184000206E01F025FA206800F062FBA168206894
:1018500000F042FB0021607900F0EAFA0021206EDE
:1018600001F016FA52460223A3544246FD33A35414
:1018700031003A002068FD3B00F028FB237B01216A
:101880006355637B6079994600F0D2FA0021206E9F
:1018900001F0FEF9206800F03BFBA168206800F031
:1018A0001BFB0021607900F0C3FA0021206E01F0DB
:1018B000EFF952462223A3544A46012313434246DA
:1018C000A35431003A000223206800F0FFFA237B82
:1018D00001216355607900F0ABFA0021206E01F020
:1018E000D7F9206800F014FBE0BCBA46B146A84620
:1018F000F0BDA168206800F0EFFA6079002100F0E7
:1019000097FA206E002101F0C3F9E121206800F070
:10191000CBFA4E23E0546079012100F089FA206E61
:10192000002101F0B5F9206800F0F2FA5DE7C04649
:1019300070B50400581E83411B012000A033FFF73F
:10194000D3F820796379834202D0012100F070FA44
:1019500001F09EFA002900D18DE0FA2200239200C6
:1019600002F0F6F806004E25A168206800F0B4FAEF
:101970000021607900F05CFA0021206E01F088F906
:10198000FF21206800F090FA60550121607900F095
:101990004FFA0021206E01F07BF9206800F0B8FAC0
:1019A0003022635D1A4218D101F072FA00290CD07E
:1019B000FA220023920002F0CBF8801B5F28D3D9D3
:1019C0005B2301220020E25470BDFA21890002F05D
:1019D00081F8801B5F28C7D9F2E7207963798342B9
:1019E0004FD1A168206800F077FA0021607900F0FB
:1019F0001FFA0021206E01F04BF92D232722E2541B
:101A000001334932E254210022004E250C32206875
:101A10002C3B2D3100F05AFA237B0121635560796C
:101A200000F006FA0021206E01F032F9206800F083
:101A30006FFA635D0120DB06C6D5A168206800F05F
:101A40004BFA0021607900F0F3F90021206E01F0DB
:101A50001FF9E121206800F027FA60550121607923
:101A600000F0E6F90021206E01F012F9206800F084
:101A70004FFA0020A8E7FA21890002F02BF80600AF
:101A800071E7002100F0D4F9ABE7C04610B50023A0
:101A9000FFF74EFF10BDC046F8B504000D00816889
:101AA000006800F019FA0021607900F0C1F9002106
:101AB000206E01F0EDF82D231722E2540133E832B5
:101AC000E254210022004E260C3220682D312C3B9E
:101AD00000F0FCF9237B0121A3556079677B00F0BE
:101AE000A7F9206E002101F0D3F8206800F010FA69
:101AF000FB0726D42B780127FF2B01D13800F8BD36
:101B0000A168206800F0E8F90021607900F090F900
:101B10000021206E01F0BCF8FF21206800F0C4F91C
:101B2000A0550121607900F083F90021206E01F0B9
:101B3000AFF8206800F0ECF9A35D1B075B0F2B707A
:101B4000DCE70027DAE7C04610B50400FFF770F8BD
:101B5000A168206800F0C0F96079002100F068F900
:101B6000206E002101F094F82D232722E254013346
:101B70001932E2542100220020680C322D312C3B16
:101B800000F0A4F94E23227B0121E254607900F099
:101B90004FF90021206E01F07BF8206800F0B8F9C1
:101BA00010BDC04670B5592604000D00835D0A00C3
:101BB0000A21FEF723FF2A00A35D10212000FEF773
:101BC0001DFF70BDF8B557464546DE464E4604003B
:101BD000E0B50D001700002900D196E0052905D9D0
:101BE000F0BCBB46B246A946A046F8BD012900D1CB
:101BF00094E0514B26005B5C81689846006800F0D9
:101C00006BF90021607900F013F90021206E01F0DA
:101C10003FF842461F231340202213432D22A35492
:101C20003A782E232700E2542D360C373A00310043
:101C300020682C3B00F04AF94E23227B0121E2541C
:101C4000607900F0F5F8206E002101F021F820689D
:101C500000F05EF9A168206800F03EF9607900218B
:101C600000F0E6F8206E002101F012F82D239A46CC
:101C700052462B3BA3542C3399464A46D133A354A6
:101C800031003A002068FD3B00F020F94E239846D1
:101C90004246237B0121A354637B60799B4600F07D
:101CA000C7F80021206E00F0F3FF206800F030F943
:101CB000224BA1685B5D01259D405B4620681D436A
:101CC00000F00AF96079002100F0B2F8206E0021DE
:101CD00000F0DEFF52462223A3544B46EDB2E554FA
:101CE0003A00310020682C3B00F0F0F84246237B9C
:101CF0000121A354607900F09BF8206E002100F0D0
:101D0000C7FF206800F004F96AE759233900C25C74
:101D1000503002F015FA57230122E254064A5923A3
:101D2000515D26003A0027002000E35CFEF766FEC6
:101D30002D360C378EE7C046B0740010B874001012
:101D4000F8B5CE464746040080B5894681680068EC
:101D5000160000F0C1F80021607900F069F8002158
:101D6000206E00F095FF2D230622E2540133F93254
:101D7000E254223B98462700A0442D3742463900C2
:101D800020680A3B00F0A2F84E23227B0121E25496
:101D90006079657B00F04CF80021206E00F078FF40
:101DA000206800F0B5F807239D434B464A46032BB5
:101DB00000D903225200B218A1682068154300F030
:101DC0008BF86079002100F033F8206E002100F0DC
:101DD0005FFF2D232622EDB2E2540133E554424643
:101DE000390020682C3B00F071F84E23227B012142
:101DF000E254607900F01CF80021206E00F048FFEA
:101E0000206800F085F8C0BCB946B046F8BDC046B1
:101E100070B504000D0000F099F80123D022A34012
:101E20001206002D01D0536270BD9362FCE7C046DC
:101E30000123D02283401206002901D0536170474C
:101E40009361FCE77047C04610B50400082102F01A
:101E500081F9200010BDC046014B08330360704774
:101E6000C074001010B541600121122000F056F836
:101E70000121132000F052F80121102000F04EF84B
:101E800010BDC04670B51C0004AB1D784160100049
:101E9000012100F043F82000012100F03FF8280064
:101EA000012100F03BF870BD00B585B06A460B001B
:101EB000D3710023D11DD3730F2201336A444068CC
:101EC00005F052FA6B46D87B05B000BD10B54068EE
:101ED00005F04AFA10BDC04610B50400406804F091
:101EE0003FFCC0210220636889011C1D21435A6800
:101EF00008600721024018684140CF200840802137
:101F000049010B43186080239B0123431A6010BDD5
:101F100010B5406804F0C0FC10BDC046094A8300FB
:101F200094464022634410B51C68C0006240C0243F
:101F300014408022520113431C60034B9C466044B2
:101F4000416010BD04C00140004001400123D02287
:101F50008340120693629361094A830094464022AB
:101F600063441968C0004A40C021114080225201D8
:101F700013431960034B9C4605236044436070473C
:101F800004C0014000400140024B18688007C00FA8
:101F90007047C04600C0064070B5EFF3108C72B6B3
:101FA0000D4D2B68002BFCD0BFF35F8F0724CB08AF
:101FB000C618C05C01230C40A3401C00044003422F
:101FC00007D103433370BFF35F8F2C608CF310880D
:101FD00070BD100001F006FD2C0100D0F8B5474699
:101FE000CE46884680B5EFF3108C72B6214D2C6832
:101FF000002CFCD0BFF35F8F9A422CD8D40807275F
:10200000055D061901241740BC402C421FD0072152
:102010000127894609E0D408055D06194C463900B8
:102020001440A1400C00294211D001329342F2D257
:1020300001204042BFF35F8F00220E4B1A608CF3E9
:10204000108800280FDBC0BCB946B046F8BD2C4351
:1020500010003470EEE7BFF35F8F00232B608CF32A
:102060001088012040424346002BECD0089801F034
:10207000B9FCC0462C0100D00021044B044ABFF338
:102080005F8F02C39342FAD17047C046000100D06F
:10209000800100D0044A1078431CDBB2172B00D912
:1020A000102313707047C046D00E002000B5054BBA
:1020B00083B00100009318221F230348FFF78EFF0F
:1020C00003B000BDD0740010D8200020012383404D
:1020D000002904D0034A1360034A13607047034A7F
:1020E0001360FBE780E200E000E100E080E100E057
:1020F00001228240034B1B6813405A1E9341D8B201
:102100007047C04600E100E001238340014A1360AC
:102110007047C04600E200E0084B10309B6880002A
:10212000C358002B07D0064A00209B1A2F229A4240
:102130004041C0B270470020FCE7C04600ED00E01F
:10214000D40E0020024B10309B688000C0587047AE
:1021500000ED00E070B50D00EFF3108672B60F4A87
:102160001368002BFCD0BFF35F8F0D4B10309B68C2
:1021700084001B590B4A934203D09D4201D001F0C9
:1021800049FC074B9B681D51BFF35F8FBFF35F8F07
:102190000022024B1A6086F3108870BD240100D023
:1021A00000ED00E0CD010010F0B557464E46DE468A
:1021B0004546E0B585B0060002911700EFF3108B9D
:1021C00072B6674A1368002BFCD0BFF35F8F0025FF
:1021D000644B5D579A46002D00DAA4E06B00624C18
:1021E00003935B199B009846A146C1444B46524657
:1021F0009B79103613705D4BB2009B680192995821
:102200000B1B2F2B34D95A4B994200D0A4E0039BCF
:10221000584A9C46584B6544AD00635343460233CD
:102220006519E418554B0121043B1B1B1B055B0D75
:1022300013436B80524BEF71AB80FF23AB71029B5A
:10224000AB604B460B431900484B019A9B68995071
:10225000BFF35F8FBFF35F8F0022414B1A608BF398
:10226000108805B0F0BCBB46B246A946A046F0BDFA
:1022700001200A008243D379BB422FD845464E46FF
:10228000130040491B1B5B415943090D3A4B6353F3
:102290003A4B02356519043B5B1B1B05354D5B0D45
:1022A0002B4373800426B446E0444444131F1B1B95
:1022B0004C46A17102991B05A16049465B0D2B4359
:1022C000A380314BE77101431360BDE75800C0188C
:1022D00080002018C679BE422BD902000623D356AF
:1022E000002BF3DA101D82462848804604267642E9
:1022F000B446E14450464E46361A3005400D8246FB
:1023000056461C48957106439680039A9446654448
:102310001D4AAD00641922604246A371029BA2804F
:10232000E771A36090E701F075FB002553465D5708
:1023300054E7101D824690884005001584464046AB
:10234000D444664604302018301AE0260005400DBB
:10235000360230438046C9E701F05CFB57E7C046D0
:10236000240100D0F6270020D40E002000ED00E06C
:10237000CD01001000E0FFFF00A1FFFF040F0020CF
:1023800001BDFFFFAAAA00000148804701BD00006F
:10239000F0B5DE4657464E464546E0B50C0083B0E4
:1023A000EFF3108972B6584A1368002BFCD0BFF3C4
:1023B0005F8F564B9A68030010339F00D559544ADB
:1023C0009046954232D0A54243D0524EAA1B2F2AA6
:1023D0002CD801228240924651464F4A1268114041
:1023E000019151464D4A1160BFF35F8FEFF30582B3
:1023F0009346002A33D101232A009A4393689C42D2
:1024000008D177E04B005B189B00F3189968A14254
:102410002AD01A00062151560029F3DA019B002B1D
:1024200019D052463E4B1A603B4B1A60374B9B68A3
:10243000DD51BFF35F8FBFF35F8F0022324B1A6015
:1024400089F3108803B0F0BCBB46B246A946A0464B
:10245000F0BD1500EAE75246304B1A60E6E79342BA
:10246000C9D001F0D7FAC6E706215956002921DB69
:102470004A005018800034188046A0689860E079BF
:10248000D871062020569871002824DBA488F01A01
:102490006405241544440019E0240005400D24027D
:1024A0002043988052181F4B9200B6181A78197062
:1024B000B271B3E7594600290FD1FF3191711A4922
:1024C000918018490A789A71184A9B1B5B415A43BC
:1024D000120D0A70A2E71648E3E7164A1649D21A07
:1024E000083A5002400D01439980144952080A43AA
:1024F000DA8093E70621515613000029B8DA5A46CC
:10250000002AEAD14546DCE7240100D000ED00E0D6
:10251000CD010010D40E002000E100E080E100E0D9
:1025200080E200E0F627002001BDFFFFAAAA00001C
:1025300001BD00000E0F002000F0FFFF00F8FFFFBC
:1025400070B5EFF3058101240443EFF3108C72B6EC
:10255000214A1368002BFCD0BFF35F8F1F4B05008F
:102560001F4AED1A6D416A43120D1E4D8900AE6877
:1025700052B27658A6421CD00621595691421CD020
:1025800012215956914222D01E215956914220D0F3
:102590002A2159560324914210D0134B19781A70EE
:1025A0008171BFF35F8F00220B4B1A608CF3108890
:1025B00070BDAB680D4C5C50EFE700246100091959
:1025C00089005B18FF21997109499980E5E7012489
:1025D000F4E70224F2E7C046240100D0D40E002024
:1025E000AAAA000000ED00E0F6270020CD010010AF
:1025F00001BDFFFF054B064A1360064A1360536096
:102600009360D360136153619361704780808080D1
:1026100000E400E004E400E000B5074B83B00100F3
:102620000093002205230548FFF7D8FC002801DBB2
:102630001F23181A03B000BDEC740010FB27002004
:10264000024B9C46614489000160704740000034A1
:1026500010B50400FFF71EFD01002000FFF7F0FF9A
:10266000FF232371BFF35F8F10BDC04610B5040078
:10267000FFF710FD01002000FFF7E2FFFF23A3801A
:10268000BFF35F8F10BDC04610B504000120FFF7F7
:102690000DFD044B9C46604480002060BFF35F8FBB
:1026A00010BDC04640000034034B9C466144890085
:1026B0000160BFF35F8F70474000003483680B48B0
:1026C00010B5844661446244090112019A185918F0
:1026D00054684B6801209C4201D802D00020C0B24F
:1026E00010BD12680B689A42F9D8F7E7FFFFFF0F99
:1026F0000A4B1968EFF3108072B60A68002AFCD002
:10270000BFF35F8F1B68BFF35F8F00221A6080F3F7
:10271000108840BF002000217047C046BC27002021
:10272000F8B557464E464546DE46E0B599460CABF1
:102730001C780DAB1B78060090469A460768002C63
:1027400011D1BC7B002C42D065003B682D19033DA4
:1027500059194B78BB73002B00D1FB7300238B708E
:102760004B700B7004E065003B682D19033D59194F
:10277000B2682A4B94464246E3181B0163441A6030
:102780004A465A600A9A9A600B9ADA6000238B7064
:102790004B700B707B7B9B46002B2BD02200594645
:1027A000B8687B6898473A68002816D05B46584658
:1027B0005B005B445519033BA870D118D35C002B18
:1027C00000D06B705B460C707B73A34513D0F0BCDC
:1027D000BB46B246A946A046F8BD5B465B005B44DB
:1027E000033BD3189C705119525D002A00D05A70D7
:1027F0005B460B707C7342464B46307D00F0D2FB4B
:10280000051E06D05346002B03D12100306800F08E
:10281000EDFD0E9B002BDAD01D70D8E7FFFFFF0FF8
:10282000F0B5DE4657464E4645460023E0B58BB030
:102830000893674B8200D45800239B46099000F010
:1028400027FB626806000F00EFF3108572B613686D
:10285000002BFCD0BFF35F8F23689C465B7B9946BF
:10286000002B00D169E0A2685A4B90464B441B01F3
:10287000984443461A685B6810001900801BB941F0
:10288000002900DC63E0099800F08CFB00230022A3
:10289000984600230692079300239A466368BFF385
:1028A0005F8F5A461A6085F310885346002B08D173
:1028B0000028C4D10BB0F0BCBB46B246A946A04626
:1028C000F0BD089B414618024B461843D04762684A
:1028D00006000F00EFF3108572B61368002BFCD0D2
:1028E000BFF35F8F002F50DB33003B4302D02369DF
:1028F000002B61D12368D97B002907D04A005218E8
:1029000019688C4649466244033A51709A7B002A02
:1029100001D14A469A734A46DA734B46E168013B55
:10292000CA5C0132CA545B4623616368BFF35F8FA0
:102930005A461A6085F3108881E7002300229846E2
:10294000002306920793002300209A46A6E7002959
:1029500002D1002800D096E70021604600F0C4FCB8
:1029600043461A685B680692079343469B689A46FB
:102970004346DB689846E3684B44013B1B78089369
:102980001B0203432361002088E72369002BB1D099
:10299000069A079B921BBB41002B15DB59460491FD
:1029A000012103914946029141460191514620007F
:1029B0000091FFF7B5FEB6E700F06AFA32003B007F
:1029C00012184B41002BE9DA0122034B5242E5E792
:1029D000A4250020FFFFFF0FFFFFFF7F10B5144C61
:1029E0006368002B04D00A211248FFF729FE10BDAE
:1029F0002300114A1021206800F090FB032000F012
:102A00003BFA032000F038FB03200C4900F084FA65
:102A1000FFF740FB0A4B9C4603232375D0231B067C
:102A20001B6860446375074B80006060DC60DAE718
:102A30001C0F0020BC270020BD26001021280010FC
:102A400040000034A4250020004870471C0F0020DF
:102A5000F0B54E464546DE465746E0B585B0019393
:102A600010AB1B780600039300239946984600920A
:102A70007268EFF3108B72B61368002BFCD0BFF3B3
:102A80005F8F3568AC7B002C3DD067002B683F1909
:102A9000033FDB195A78AA73002A00D1EA73B168A0
:102AA000474A8C4600980199A218120162441060AE
:102AB00051600E9991600F99D16042469A705A7098
:102AC0001A706B7B9A46002B67D022001900A86809
:102AD0006B6898472A68002852D0534650465B00DE
:102AE0005344D719033BB870D118D35C002B00D0E6
:102AF0007B7053460C706B7354454FD0F3681B19B1
:102B0000013B187800E000207368BFF35F8F4246F6
:102B10001A608BF31088002C4FD04B46002B08D145
:102B20000002204305B0F0BCBB46B246A946A04611
:102B3000F0BD039B002B3ED00E9B00200F999847C1
:102B4000030004000D000B4335D000290ADA009A77
:102B5000019B121BAB4100920193002B0ADB039BEC
:102B6000994685E700F094F924184D4100940195A9
:102B7000002DF4DA0123134C5B4200930194EEE73D
:102B800053465B005344033BD3189C70D119D25D6C
:102B9000002A00D05A7053460B706C73307D009A37
:102BA000019B00F0FFF981460028A7D02100306882
:102BB00000F01CFCA2E70020B4E701204042B1E78E
:102BC000FFFFFF0FFFFFFF7F407D7047F0B5040060
:102BD0000D0006267642F717C64636196F4100B536
:102BE00084B08F4214D811D000F052F932003B006B
:102BF000121A8B41002B15DC002B3ED0200029003F
:102C000000F07AF904B080BCB846F0BD8642EBD93A
:102C10000026002700F03CF932003B00121A8B41DD
:102C2000002BE9DD002302930193154B3200009342
:102C300014483B00FFF70CFF0028DFDB0023984619
:102C4000BC46114A114F7B6A9C4504D8B96A8E4232
:102C5000D4D99C45D2D11168EFF3108072B60B68BD
:102C6000002BFCD0BFF35F8F1368BFF35F8F41462B
:102C7000196080F3108820BFE5E7002ABED0D1E7B5
:102C8000F12600101C0F0020BC270020004005404A
:102C900070B504000D0000F0FBF80019694100292F
:102CA00002DBFFF793FF70BD012001494042F8E7C6
:102CB000FFFFFF7F70B5060000F0EAF8FA2204007B
:102CC0000D00002330000021920001F09BF9001953
:102CD0006941002902DBFFF779FF70BD012001493E
:102CE0004042F8E7FFFFFF7FF0B5EFF30583CE46E4
:102CF000474680B505000C0085B0002B12D02C4A49
:102D00000020536A9C4203D8926A0130AA4204D33D
:102D100005B0C0BCB946B046F0BDE01A421E9041B5
:102D2000C0B2F5E7234E02930193234B02000093B8
:102D300030000B00FFF78CFE031EE0DD20BF716842
:102D4000EFF3108772B60A68002AFCD0BFF35F8FDA
:102D5000DAB294463068427B62451DD0FF221A40A9
:102D600051008946016891448846494641440339E7
:102D70008978002913D0F1681B0A88464244013A39
:102D80001278DBB29A420FD07368BFF35F8F0022D4
:102D90001A6087F31088B2E7FF221A40EBE7326926
:102DA0009342F1D13161EFE7614600F01FFBEBE7A1
:102DB000004005401C0F0020F1260010F0B5EFF395
:102DC0000582D6464F4646461000C0B51038EFF390
:102DD000108872B6214C2368002BFCD0BFF35F8FA4
:102DE0000123190081401E4D1F006963AA461D4D35
:102DF00029601D4D2E78AC463500C5402F402B4232
:102E000009D1BFF35F8F276088F31088E0BCBA4612
:102E1000B146A846F0BD5346144D5F6A83005D5924
:102E2000AF420ED3124A8E439B5862461670BFF3D0
:102E30005F8F0022226088F31088002BE6D098472D
:102E4000E4E70C4B92009C46624413681360BFF3A6
:102E50005F8F0023236088F31088D7E7280100D014
:102E6000004005403C700540FA270020D027002094
:102E7000C01F0020D03F054010B50100024A0348A2
:102E8000FFF78AF810BDC04610750010F427002027
:102E9000034B596A0A00986A596A8A42FAD1704704
:102EA0000040054070B504000D00124A536A190035
:102EB000966A536A8B42FAD13000190024184D41AA
:102EC000AB4211D80ED02B000A494A6A9A42FCD371
:102ED00007D1084A02E0516A994202D1916AA1429F
:102EE000F9D370BDA642EED9012301246442E5174F
:102EF0005B42E9E700400540064A536A9942FCD824
:102F000007D1044B02E05A6A914202D19A6A824286
:102F1000F9D370470040054070B504000D00EFF391
:102F2000108672B61A4A1368002BFCD0BFF35F8F6D
:102F3000002D1BD02000FFF705F9164981420AD069
:102F40002000FFF707F901212000FFF7BFF8012358
:102F5000A340114A1360114BA400E550BFF35F8FEB
:102F600000220B4B1A6086F3108870BD0B4BA20039
:102F7000D5500122A2400A4920000B7893430B70E0
:102F80000449FFF705FA00212000FFF79FF8E5E765
:102F9000280100D0BD2D001038600540C01F002062
:102FA000FA270020F0B54F46D6464646C0B5070082
:102FB0002C4C616A0D00A66A616AA942FAD18B4263
:102FC00008D805D00120E0BCBA46B146A846F0BDFD
:102FD000B242F7D9EFF3108A72B62348016800298C
:102FE000FCD0BFF35F8F0125BD4020491D4C8846B2
:102FF000097889462943C9B28C4641466046087023
:10300000391D1B48890065630A51B9000B50216ABC
:103010000020294219D0616A0800A66A616A8142CB
:10302000FAD18B4219D801D1B24216D8CC4516D06C
:103030000C4B1F201D625D6301230740BB400D4AFE
:103040001E38136043464A461A70BFF35F8F002252
:10305000054B1A608AF31088B5E70020F5E70120D8
:10306000F3E7C04600400540280100D0FA270020C1
:10307000D027002080E200E0EFF3108C72B60A49FE
:103080000B68002BFCD0BFF35F8F01238340074AFE
:103090000748136202789A430270BFF35F8F0023E0
:1030A0000B608CF310887047280100D00040054069
:1030B000FA27002070B5050014001600002915D06D
:1030C0000C00002A12D080686B6898472968002895
:1030D0000ED073009B196200033B1219CB18033A00
:1030E0009C7088188A5C002A15D10670200070BD7B
:1030F00063001B197200033B9219CB18033A9E70B0
:1031000088188A5C002A02D104703400EEE75A70F5
:1031100004703400EAE75A700670E7E730B5836060
:103120000023CCB243730133047342608373C473CE
:103130000D000068012C06D9421C0133DBB213706C
:1031400003329C42F9D1FF2129404B00591800233A
:1031500040180338437030BDF8B5CE4647460600E8
:103160000C0080B5002907D04D0003686D18033DA1
:103170005A195778002F04D12000C0BCB946B04678
:10318000F8BD7900C91903398846434459788946FE
:1031900000215970517073683A0021008068984787
:1031A0003368002814D042469A18947059195B5D10
:1031B000002B00D053700F70270049463000FFF7F6
:1031C000CBFF390002003000FFF774FF0400D3E7A3
:1031D000424641465D19AF709A185B5C002B00D0E7
:1031E0006B701470E9E7C046F0B557464546DE46B9
:1031F0004E46E0B50D006B0001685B19DF1E040050
:10320000C85D83B00192CA19002850D043001B1832
:10321000033BCB185E78B446002E1AD1019E002ED7
:1032200042D0E67B002E04D073009B19CB18033BE1
:103230005D70A37B002B00D1A573E57300282FD10F
:103240000023537003B0F0BCBB46B246A946A0466B
:10325000F0BD72006244033A89184A789046002211
:103260004A7091465A70010032002000FFF722FF99
:1032700043468246002B07D05B0021684344033B52
:10328000CB185A78002A16D1424651462000FFF743
:1032900011FF2168019BCA19002BC2D10028CFD091
:1032A00043001B18033BCB1800219970C8E7019B12
:1032B000002BB6D1C4E750008018033809184878AD
:1032C000834648464870587041462000FFF7F2FE9A
:1032D000594680462000FFF73FFF4146020020008C
:1032E000FFF7E8FE8046CFE7F0B557464546DE4695
:1032F0004E46E0B583B00191457B04006B00006849
:103300005B19DF1EC15DC219002952D04B005B184A
:10331000033BC3185E78B446002E1CD1019E002EDC
:1033200044D0E67B002E04D073009B19C318033BE6
:103330005D70A37B002B00D1A573E573002931D10B
:10334000002328005370617303B0F0BCBB46B24643
:10335000A946A046F0BD72006244033A8018427844
:1033600090460022427091465A7020003200FFF7CA
:10337000A1FE43468246002B07D05B0021684344F0
:10338000033BCB185A78002A17D1424651462000F9
:10339000FFF790FE019B01002068C219002BC0D1ED
:1033A0000029CDD04B005B18033BC3180020987058
:1033B000C6E7019B002BB4D1C2E750008018033848
:1033C000091848788346484648705870414620009E
:1033D000FFF770FE594680462000FFF7BDFE4146CC
:1033E00002002000FFF766FE8046CEE770B50400BD
:1033F00000292CD0437B8B422ED005684800401812
:10340000033828188278002A21D053009B18033BE8
:10341000EA5CEE188A4202D11BE0002A08D0530071
:103420009B18033BEB185A788A42F6D142785A70BF
:1034300000230122837043702000FFF7D5FE617BDB
:1034400002002000FFF736FE6073012000E000203C
:1034500070BD43783370EBE701221900FFF7C4FE1B
:1034600060730120F4E7C04630B50C2083B000F053
:10347000B9F9FEF789FD00280ED0994B994A1A60D8
:103480005A609A60DA601A615A619A61DA611A6266
:10349000954A5A6203B030BD944CA06700F0F6F92B
:1034A0000122934B1A60636C012BFCD10322914BD8
:1034B0001A608E4A936B012BFCD1013301218E4A95
:1034C0008E480093043300F03DF905238C4A0093A5
:1034D00001218C4800F036F98B4B5A68FF2A02D83C
:1034E000802252005A6080227D4C824B2169120159
:1034F000854D1A60002907D0606900F0EBFA431C83
:103500005800C0180338FDD2E0217F4B02201A6812
:103510001140802252012A4311601968484003215A
:103520000140116004219A681142FCD08022802160
:1035300092012A4309011160802252005A60734BA4
:103540002361734B5968FF2900D85A600321684AE8
:103550006F4B116002399A681142FCD0E0201A6862
:103560001040802252011A4310601868484003211D
:1035700001400220116066498A681042FCD0802216
:1035800092011343802212011A608022614B520083
:103590004A606361604B5968FF2900D85A608022F5
:1035A0005E4BE16912015C4D1A60002907D0606929
:1035B00000F090FA431C5800C0180338FDD2E022F6
:1035C00055490B681A4080235B012B431A60802306
:1035D00080229B012B4312011A608022414B520032
:1035E0004A60E3614E4B5968FF2900D85A60802237
:1035F0004C4B216A12014A4D1A60002907D06069BC
:1036000000F068FA431C5800C0180338FDD2E022CD
:1036100043490B681A4080235B012B431A608023C7
:1036200080229B012B4312011A60802380225B00C1
:103630004B602C4BD20223623B4B5968914200D223
:103640005A608022394B616A1201374D1A60002995
:1036500007D0606900F03EFA431C5800C0180338D8
:10366000FDD2E02230490B681A4080235B012B43D6
:103670001A60802380229B012B4312011A60802351
:10368000DB024B60184B6362294B5A68FF2A02D851
:10369000802252005A608022264BA1691201244DDB
:1036A0001A60002907D0606900F014FA431C580022
:1036B000C0180338FDD2E0221D490B681A40802350
:1036C0005B012B431A60802380229B012B43120154
:1036D0001A6080235B004B600E4BA361DAE6C046A4
:1036E000DC200020006CDC021BB7000000800040E2
:1036F0003CB0004030B00040002F685900800240CC
:10370000008C864700C0024030800040001BB7009C
:103710003C800040405973075480004054B0004042
:103720006080004060B000406C8000406CB00040A1
:103730004880004048B00040014B8000C0587047AE
:10374000DC200020F8B5040021481D0017000E0001
:1037500000F0C0F90100380000F0BCF9069B290414
:103760001B0319432368002B20DB1A4B1A4DE21868
:1037700053425A4180235B019C461203174B62441B
:103780001A60174B1A601700AB689F43FBD1C02229
:10379000231D92011A4321232660A0601360236831
:1037A000002BFCDA0823E1601360F8BD3F23226898
:1037B0001340B342D9D1A3681B051B0D8342D4D15A
:1037C000EE22E368D20213408B42CED1EDE7C04631
:1037D000001BB7000040FDBF00C0004000E00040FB
:1037E00000F000408023024A9B000343D3627047ED
:1037F0000080054010B5140080221B4BD2051A60D2
:1038000000281AD00123194A1843194BDA61194AC2
:1038100042401A62596298628022134BD2051A60A4
:103820001549164A1160E022D2041A60002C07D113
:103830008022134B12061A6010BD0D4BD861EBE7C6
:1038400063011B1B9A008023121912015B049A4228
:1038500000D30C4A0C4B1A60054B5A608022084B6F
:10386000D2051A60E8E7C04600B00540D3C007B0F3
:10387000008005402D3FF84FFCFF0100082001406B
:1038800000A00540FFFFFF0084250020AA23064A70
:103890001B0113602F230549D360054B1960536842
:1038A000002BFCDA7047C0460040024000B0FA002E
:1038B000006002402C4B2D4A70B51A602C4A2D4BEB
:1038C0002D491A6014008B689C43FBD12B4D2C4E64
:1038D000B54208D2013E761BB60808CD98472300B2
:1038E0000134B342F9D1FFF7BFFD264A214B1A60DC
:1038F000214A9368DB43DB01DD09002BF9D140222B
:10390000214B224C224E9A675A671A67DA66B442F4
:1039100008D223682000002B20D00834FEF7A6FE32
:10392000B442F6D31B4E1C4CC022A168300000F0FC
:1039300007FCA660FEF7A0FBFEF75CFEFFF74EF863
:10394000164C174EB44208D2013E361BB60808CCBE
:1039500098472B0001359E42F9D170BD0834FEF71F
:1039600077FEB442D5D3DDE700E00040BFCDFBFEDB
:10397000FE7F3C0000F0004000C000400018002026
:1039800010180020FFFFFF0100F00140F017002099
:10399000001800200000002000ED00E010180020BA
:1039A0001C18002000BEFDE7094A0300106800282B
:1039B00005D00849C3188B4207D8136070470648E2
:1039C0000449C31810608B42F7D901204042F5E743
:1039D0007C21002000000420FC27002010B5FFF708
:1039E000E1FFC0460FB400B5084883B000F0E2FC28
:1039F000049B002B07D005A91800019100F018F8CE
:103A0000034800F0D7FC0120FFF7CCFF347500100D
:103A10004475001010B50148FFF7E4FF4875001029
:103A200010B5002800D110BD00F078FCFBE7C046BF
:103A300010B5094A0300146884B0002C08D0012294
:103A400000910648524203A9A047012004B010BDCE
:103A500000F0B0FC0020F9E780250020213A00109A
:103A600001480421014B1847500F0020913A0010E3
:103A7000142310B50100188804331B88984710BD23
:103A8000162310B50100188802331B88984710BD13
:103A9000F8B54746CE4680B50F1E19D01423994677
:103AA000043304000025012698464B4618884346F7
:103AB00021681B88984701C4431E98410135404244
:103AC0000640AF42F1D13000C0BCB946B046F8BDA7
:103AD0000126F8E7114A936F9B0813D210665166CE
:103AE000002905D0FFE7FFE7FFE7516F106F704730
:103AF00004B5002801D00020C04303F01DFC0021C4
:103B000004BDC046F0B5146E556E576F166FFFF7C3
:103B1000E5FF1466556657671667F0BD000000D0D4
:103B200094464A4A926F9208624601D228E0C04603
:103B3000F0B5464E346E756E776F366F00F020F834
:103B40009446424A14665566576716676246F0BD4A
:103B500094463E4A926F9208624601D254E0C046B3
:103B6000F0B53A4E346E756E776F366F00F04CF8E4
:103B70009446364A14665566576716676246F0BD26
:103B8000002B24DB11D000293EDA00B5C9434042A6
:103B900000D1013100F038F8C943404200D1013171
:103BA000DB43524200D1013300BD002AEBD1002893
:103BB00001D1002905D00020C90FC90701D1C04398
:103BC000410800B503F0A8FB0022002300BD00B5AA
:103BD00000290ADBDB43524200D1013300F014F824
:103BE000C943404200D1013100BDC943404200D128
:103BF0000131DB43524200D1013300F005F8DB43D1
:103C0000524200D1013300BD002923D1002B18D12D
:103C1000002A0CD0BC460D4F38667A66002100237E
:103C2000FFE7FFE7FFE77A6F386F674670470028C6
:103C300001D00748010000B503F06EFB002200230D
:103C400000BD02000B00002000217047000000D0E2
:103C5000FFFFFFFF002B00D0BFE0130C28D1002A8C
:103C6000E7D080B4114F39667A66FFE7FFE730B4DA
:103C7000040C7B6F396F1B0423433B667A66FFE7B6
:103C8000FFE7FFE7C04684B27B6F3D6F1B04234311
:103C90003B667A66FFE7FFE7C04600232C042D0C45
:103CA0007A6F386F00196941B0BC7047000000D0CE
:103CB000F0B594460025140E01D112020835140FF8
:103CC00001D112010435940F01D192000235D40FB5
:103CD00001D152000135D40B0134254F7C66254CAF
:103CE0003C660E0C93B2FFE7FFE7FFE73C6F6643CD
:103CF000360C7703BE467343DF0B5B04C01AB94131
:103D0000130C7343DB18C91ACE086643360CB6444D
:103D100093B273431F0F1B01C01AB941130C7343B5
:103D20001F0B1B05C01AB941860D8F023E43664327
:103D3000360C092D24DB520A7243801A7703460A97
:103D40006643360C16235B1BDE40DF40BF1964461A
:103D50006643821B7046043506330100D940A840F3
:103D6000C01900D30131A24206D20023F0BD0000E9
:103D7000000000D0FFFFFFFF121B0130F3D3F1E77B
:103D800009277F1BFE406446A2B27243801A00D20C
:103D90000139220C7243130C1204821A99410B0050
:103DA0007046043513370100F940A840801900D34C
:103DB0000131002B02D1A2420AD2F0BD013000D362
:103DC0000131121BFAD2013BF8D1A24200D2F0BD60
:103DD000013000D30131121BF7E7F0B51C0C00D005
:103DE00080E00CB400251C0A04D11B02160E3343DC
:103DF000120208351C0B04D11B01160F33431201AC
:103E000004359C0B04D19B00960F3343920002357E
:103E1000DC0B02D192185B4101351C0097186441FC
:103E20000134464F7C66464C3C660E0CFFE7FFE7CC
:103E3000FFE7C0463C6F6643360C7703BE4697B239
:103E40007743C01B00D20139C01B00D201399FB299
:103E50007743C91BC91B170C77437E04FF0B801BDC
:103E6000B941CE086643360C0C2D33DBB644120B39
:103E70001F053A431B0B97B27743C01B00D2013991
:103E80009FB27743C91B170C77433E043F0C801B3E
:103E9000B941860D8F023E43664329277F1BFE40B2
:103EA0000C3D7746AF40BF1930BCA2B2ABB27243F3
:103EB0007343801A9941220C7243130C1204801A26
:103EC000994102000B000137001BA941F9D2781E6D
:103ED0000021F0BD0C277F1BFE4077467F0BAF40D3
:103EE000FF19E0E700245D1C07D0144F7D6639669A
:103EF000FFE7FFE7FFE7FFE73C6F95B29EB2654340
:103F00006643401BB141150C1E0C654366433604E5
:103F10002F0C3E432D04401BB141994204D20200B4
:103F20000B0020000021F0BD01D19042F7D3801A90
:103F3000994101349942F2D3F6E70000000000D025
:103F4000FFFFFFFF132370B51D78012D15D010DD85
:103F50001C48FFF795FD1C4C01008022200000F05A
:103F6000EFF8022D06D01948FFF782FD184B1860B4
:103F700070BD154C174BA364F5E7164B124C23602C
:103F80006360A360E36023616361A361E361236213
:103F90006362A362E36223636363A363E3632364F3
:103FA0006364A364E36423656365A365E3652366D3
:103FB0006366A366E36623676367A367E367A36437
:103FC000D1E7C04653440000281900204C330000BC
:103FD000B8270020D93F001007B5604601880A0ABB
:103FE0000230DF2AFAD1C9B2820804D3028840889D
:103FF0000004104300E00068014A5050039007BDE0
:104000002819002051434343C9188C46110C83B230
:104010004B4310B4040C614392B280B250436243EC
:104020001C041B0C001910BC59411304120CC018BD
:104030005141614470470000132310B512481C78A9
:10404000FFF71EFD0100012C0AD003DD80220F487E
:1040500000F076F80E48FFF70BFD0E4B186010BD10
:104060000A4C5422200000F06BF80B4B6365A365EB
:10407000E36523666366A366E36623676367A367F6
:10408000E3672362E361E5E753460000281A002056
:104090004C330000B82700209D40001007B5604653
:1040A00001880A0A0230DF2AFAD1C9B2820804D391
:1040B000028840880004104300E00068014A505024
:1040C000039007BD281A002070B504000A4E300086
:1040D00003F072F9200002F06DFC0500300003F0DF
:1040E00013F9002D05D0054B2C199C4201D828004E
:1040F00070BD0348FFF776FCF01700200000042095
:104100005475001070B50400054D280003F054F9F3
:10411000200002F059FC280003F0F6F870BDC046FC
:10412000F017002001480421014B1847600F0020C0
:10413000913A0010014B1B6818470000600F0020E7
:10414000014B5B6818470000600F002010B5FFF7B7
:10415000BBFF10BD10B5FFF7D5FF10BD030010B5B4
:10416000080011001B68984710BDC046F0B54646D0
:104170004F46D646C0B5437D80460E001700002B43
:1041800046D0002A3FDD4B1E9946244B01250024D2
:1041900000209A460DE04B461B5D0D3B5A425341B1
:1041A000325DDBB20A2A0BD02B00013401359F426D
:1041B0001ADD002CEFD14346325D1B7D0A2AF3D174
:1041C000002BF1D1A04204DA4346211A1B683018B3
:1041D0009847434650461B680221984701342800FF
:1041E0002B0001359F42E4DC874204DD4346391A47
:1041F0001B6830189847F619013E33780D3B5A4238
:10420000534142461375E0BCBA46B146A846F0BDDC
:104210000368110030009847F5E7C046CC750010E0
:10422000F0B5DE4657464E464546E0B585B0170028
:104230001C0006000D00FEF72BFE0023304A12186A
:104240004B41002B58DB2F4908008A4603F094F8B5
:1042500001906B1C03D1300002F0ACFE0500002C75
:1042600025D1294B9846294B1C68002C15D0002FCE
:1042700020D1274F02E02469002C0ED02368002BA8
:10428000F9D03B68002B01D0A342F4D120002A00D2
:104290003100C0472469002CF0D1019B002B27D1AD
:1042A00005B0F0BCBB46B246A946A046F0BD194BCE
:1042B0009846D8E7164B994602ABDF1D0A239B466A
:1042C00002E02469002CE8D02368002BF9D04B468B
:1042D0001B68002B01D0A342F3D12A00310020003B
:1042E000C0475B460122390020003B70C047E8E729
:1042F000504603F009F8D3E70122074B5242A2E7E8
:1043000040420F00F81700206D4100106C21002082
:10431000782100205D410010FFFFFF7FF0B5CE4601
:10432000474680B583B06B460600DD1D2870FEF75A
:10433000AFFD00231A4A12184B41002B2BDB194901
:104340000800884603F018F8174B81461C68002CBB
:1043500014D0164F02E02469002C0FD02368002BE4
:10436000F9D03B68002B01D0A342F4D120000122F8
:104370002900FFF7FBFE2469002CEFD14B46002BF0
:1043800005D1300003B0C0BCB946B046F0BD4046D0
:1043900002F0BAFFF5E70122054B5242CFE7C046D3
:1043A00040420F00F81700206C21002078210020E7
:1043B000FFFFFF7F70B5040002F0FCFD0023010049
:1043C000050001222000FFF72BFF084B1C68002C82
:1043D00006D06368002B05D098472469002CF8D1DB
:1043E000280070BD2469002CF3D1F9E76C2100206E
:1043F0000A4A1368002B05D10CE01A001B69103221
:10440000002B07D09842F8D1002902D1036913602C
:10441000016170470029FCD01060FAE76C21002090
:1044200010B500F013FA10BDF0B5184B85B01A683E
:104430005D68174F174E01923C68002C03D113E0C2
:104440002469002C10D03368002B01D0A342F7D18F
:10445000A368002BF4D0012103A898470028EFDDC2
:1044600002AB187905B0F0BD0B4B5A6A954208D8DB
:104470009B6A01998B4201D2954202D001204042B1
:10448000F0E701200021FEF70DFDD5E708750010CB
:104490006C21002078210020004005407047C04674
:1044A0000022014B1A707047F72700204B7900203B
:1044B000FF2B0BD18B79002B08D1CB79012B05D1A8
:1044C000082A03D98A78024B09301A707047C0460F
:1044D000F72700200120704770B5012909D115493F
:1044E0005379107909781B0203430020994202D0C6
:1044F00070BD0120FCE75378012B08D0022BF7D1C7
:10450000002064220021FFF775F90120F0E794787C
:10451000D278050012021443D20502D5620A9340F4
:104520001D000548FFF7A4FA7F2103002140280061
:104530009847C046F727002055420000012303702A
:1045400000487047D075001048780B788A780002D0
:104550001843120410439622CB7810B51B06034370
:10456000D200934200D010BD0348FFF781FA00212A
:10457000030008009847C04655420000024B1860EF
:10458000024B19607047C046D0200020D420002084
:1045900010B5024B1878FDF7B7FD10BDF8270020C5
:1045A000114B70B51A68002A1AD0EFF3108172B659
:1045B00010680028FCD0BFF35F8F00220B485960C1
:1045C00002701B68BFF35F8F1A6081F310880024AC
:1045D0000025074B1878FDF797FD2900200070BDD6
:1045E000FA240025A400F4E79C250020F9270020E8
:1045F000F827002070B5040000200E0001F002FB37
:10460000002835D0002001F015FB002830D0FEF73F
:104610003FFC0023184A12184B41002B24DB174D96
:10462000280002F0A9FE002822D0002001F0EAFABA
:1046300000280BD1012000210324404200F0CCFCD3
:104640006442280002F060FE200070BD002001F0EE
:10465000F1FA0028EED021003200002001F0F6FA35
:10466000041EEED1033CECE70122054B5242D6E793
:1046700003246442E8E7C04640420F00C8270020F8
:10468000FFFFFF7FF8B5DE46574680B505000C00FA
:10469000FEF7FEFB0023364A12184B41002B5ADB73
:1046A000344908008A4602F067FE002803D1C0BCE6
:1046B000BB46B246F8BD002001F0A4FA00284ED057
:1046C0000026002C43DD2C4B9B4614E0A91900204A
:1046D00001F030FB070001200021404200F07CFC8B
:1046E000002001F0EBFAFEF7D3FB234BF61918601C
:1046F0005960B4422BDD002001F036FBA71B0200FD
:10470000B84200DD3A00002AE0D1012000214042F9
:1047100000F062FC002001F0D1FA002001F072FAF2
:10472000002814D0002001F01FFB0028E1D1FEF783
:10473000AFFB5B460F001A685B68002184460F4898
:1047400012184B419F4202D8D3D19445D1D950463B
:1047500002F0DAFDABE70122094B5242A0E700204C
:104760000021054B18605960504602F0CDFD9EE7D0
:1047700040420F00C82700202019002020A1070078
:10478000FFFFFF7F10B5244C84B00021200002F011
:10479000DBFD00281CD1214B1A68002A16D0EFF34C
:1047A000108172B610680028FCD0BFF35F8F01241F
:1047B0001B48596002781B68D2B20470BFF35F8F48
:1047C0000020186081F31088002A0AD004B010BDC0
:1047D00001200021404200F0FFFB200002F094FD88
:1047E000F4E7FEF731F90400FEF752FBFA2200234A
:1047F000920012184B41002B09DB0121029100218C
:104800000191084920000091FEF722F9DEE701221C
:10481000054B5242F1E7C046C82700209C250020E6
:10482000F9270020A1450010FFFFFF7F054B10B5C1
:104830001868002804D0044B0022196801F044F8DD
:1048400010BDC046D0200020D4200020D02310B5B9
:104850001B0684B01C68FEF7F7F8FEF7B5F9A04216
:1048600002D0002004B010BD264B1B7801F066FC7E
:104870002548FDF7EDFE0120FDF7CEFEFF23234C7A
:10488000234920701840FDF765FC20780121FDF7D1
:104890001DFC0520FDF740FC002822D1FEF7D4F8CE
:1048A0000400FEF7F5FAFA220023920012184B4199
:1048B000002B22DB012102910021019115492000EA
:1048C0000091FEF7C5F80822040000211248FFF706
:1048D00031FC002CC5DB11480121FFF789FD0120C7
:1048E000C0E700220E490520FDF75EFCFDF7D2FB74
:1048F00001000948FDF7D8FEEDE70122094B5242BD
:10490000D8E7C046DC770010C8270020F827002031
:1049100085470010A14500109C250020700F002045
:1049200091450010FFFFFF7F004870478876001018
:10493000004870473476001070B5040017480378BB
:10494000002B21D0002C06D1C1241548154BA40002
:104950004380048070BD052C1DD8134B1048A40063
:10496000E558811C002304E001330A800231132B37
:104970000ED0EA5CDCB2002AF6D1C0230134E4B2E6
:1049800064009B001C43E4E7112100F017F8D9E70D
:10499000CA24A400DDE70020DCE7C046E0270020B1
:1049A00044210020090400009C76001010B5024844
:1049B00000F0D8F810BDC0461826002030B54B1EB8
:1049C000012900D1A7E0664A11780D112C0030347E
:1049D0009F2900D9A2E00470012B00D1BEE00F2175
:1049E000147821400C003034092900DD98E044702F
:1049F000022B00D1B2E054782511290030319F2CD0
:104A000000D990E08170032B00D1A7E00F21214055
:104A10000C003034092900DD87E0C470042B00D17C
:104A20009CE094782511290030319F2C00D97FE03B
:104A30000171052B00D191E00F2121400C00303491
:104A4000092900DD76E04471062B00D186E0D47898
:104A50002511290030319F2C00D96EE08171072B80
:104A600000D17BE00F2121400C003034092966DCA5
:104A7000C471082B00D171E014792511290030315F
:104A80009F2C5FD80172092B68D00F2121400C00A8
:104A90003034092958DC44720A2B5FD0547925112F
:104AA000290030319F2C52D881720B2B56D00F2108
:104AB00021400C00303409294BDCC4720C2B4DD042
:104AC00094792511290030319F2C00D907310173C9
:104AD0000D2B43D00F2121400C003034092901DD7A
:104AE00037310C0044730E2B38D0D1790C112200D1
:104AF00030329F2900D9073282730F2B2ED00F221C
:104B00000A4011003731092A01DC30321100C1732B
:104B1000102B23D010300023037030BD07345AE728
:104B200037310C0063E707316CE737310C0074E76D
:104B300007317DE737310C0085E707318EE73731E4
:104B40000C0095E707319DE737310C00A3E70731EB
:104B5000AAE737310C00C4720C2BB1D1C018DAE7C8
:104B60001826002030B5002589B004000922002154
:104B700001A80095FFF7DEFA0922002105A8049597
:104B8000FFF7D8FA4B236A466846137004A90D2232
:104B900002F0B2FB1521082220006944FFF7D0FA89
:104BA00009B030BD10B501210520FDF78FFA10BD09
:104BB00010B500220021024800F05AF910BDC0468D
:104BC000A02100208022024B5202DA647047C046C6
:104BD00000201150F0B5C64600B5060000F022F9DD
:104BE0000C231B4DFF22AB6705201A49FDF7DCFAA9
:104BF00040239846184C402200212000FFF79AFAE3
:104C000043460127238321210023144A6770A260B1
:104C1000136063545F3161844146218705396354D1
:104C20000F4A10496360E260A1620B606362E26256
:104C300002F07AFB80239B052F64EB6490230A4AE1
:104C40003000EA50FFF7BEFF80BCB846F0BDC0465A
:104C500000001150410500208021002084001050E8
:104C6000000110508000105010D001000B785B063E
:104C700002D14B78052B00D070478A78014B1A601F
:104C8000FAE7C04600001150F0B5C64600B54B79B2
:104C90000C791B0288782343CC787F21A40701403C
:104CA000C509A20F4F001400324E7A195201B218F2
:104CB000907001206840507000205B055B0DD07043
:104CC0001383D4768046CA00012D33D02A48844607
:104CD000880162448446B444604682604046106065
:104CE000002933D0254AC9009046624641445160AC
:104CF0003F223F339343022C00D15B0020487A19B6
:104D000001685201B218D1601E4ACB1803605140AD
:104D10005340802288465201934228D84346A40635
:104D20001C4380237F197F011B06F6191C437368FF
:104D30001C6011E014488446880162448446B444EF
:104D40006046826240461060002909D100236D014F
:104D5000761973600D4BF360012080BCB846F0BD3E
:104D6000084AC9009046624641445162C0E7FEF7D6
:104D700051FED3E780210020840010500400105021
:104D800098250020000010508000105000011050A5
:104D900010B502F0C9FA10BD10B57F200C002040FC
:104DA0004000E409110000191A00034B4001C0182B
:104DB00000F05EF8012010BD802100207F2213004A
:104DC00010B50B400A420BD0C90980225800401888
:104DD0000649400140181201002102F0E5FA10BD19
:104DE00002220348C909521A8266EEE78021002098
:104DF000002011507F22100010B508400A4200D157
:104E000010BD0023C909400040180449400108189A
:104E100000220349C37002F0C7FAF1E780210020A5
:104E2000FFF7FFFF80220D4B520410B51A600C4BA8
:104E30000C491A6010008B689843FBD10A4C9C22E5
:104E400000212000FFF776F9802200215201074857
:104E5000FFF770F90923636710BDC04600E000400A
:104E600000F0004000C00040000011500000105051
:104E700070B5837E04000D001600002B17D10023AF
:104E8000E38201332000A682A376256102F02CFA8A
:104E9000002804D080219023084A8902D1502000A4
:104EA00002F092FA002805D00123237770BD02F0AA
:104EB00073FAE4E7200002F067FAF7E700201150E8
:104EC000024B5878431E9841C0B27047A41E002080
:104ED000024B18784007C00F7047C046A41E002040
:104EE000034B1878FF38431E9841C0B27047C04644
:104EF000AC0F0020F8B5CE46474680B52C4E0500D5
:104F000033780120FF2B03D0C0BCB946B046F8BDB2
:104F1000532200212748FFF70DF9274C2000FDF709
:104F200097FB264B1C60264C20001430FDF7ACFB91
:104F3000200001F0D1FB234B234F1C60234B9846EC
:104F4000002B04D03800FFF7F9FA214B18604246D5
:104F500000243B78002A23D01E4A90461C4A9146E2
:104F6000A34212D80FD14346984701343B78E4B2AC
:104F7000A342F5D228003570FFF72CFE2800FFF77A
:104F800011FE0120C0E70020BEE74A461268630018
:104F900094461B19DB006344002BF4D01B68E3E745
:104FA00000F0EEFE3B780020002BADD1E2E7C046DA
:104FB000AC0F0020A41E00205C1E0020F81E002064
:104FC000900F0020FC1E0020F12700203D4500101E
:104FD0007C1B0020815D0010F0B5DE4657464E4632
:104FE0004546E0B58BB001F0AFF8002800D10FE1E5
:104FF000C74BC84D9946C84B07AC9B462E68726993
:10500000EFF3108172B61368002BFCD0BFF35F8FF3
:10501000B1613000210001F0A1F97269B369BFF3F9
:105020005F8F0021116083F31088002800D1EFE02A
:105030006378082BE2D84A469B00D3589F466368A2
:10504000002BDBD0A0689847D8E77F222179B24EA9
:105050000A405000CB093618F618300001273030CE
:10506000C378BB43C370C3780337BB43C370002A04
:1050700000D1F2E0A94AF37C002A06D0A84A1278AF
:10508000934200D260E19B1ADBB2002B00D0BFE05C
:10509000A44E62792078A368B047AFE75B4601224F
:1050A0001B78012113435A46137033235846D25CB0
:1050B0005E468A43C254C25C04208243F2540133E8
:1050C000F25C8A43F254F25C8243F254237800206B
:1050D0009A4600F005FD602223791A40602A0DD01F
:1050E000402A00D1BFE0DB06DB0E012B00D136E108
:1050F000022B00D1D4E0002B00D1C3E020780021A6
:10510000FFF75CFE80212078FFF758FE76E7824E9D
:105110003378DB0700D471E7834B002B00D16DE7B8
:1051200000E000BF6AE77C4E3378DB0700D465E718
:105130007E4B002B00D161E730780007C00F00E004
:1051400000BF5BE7764B754A9846002627781B78A8
:10515000002A00D179E0764A92469E425FD319D167
:10516000744B38009847434601361B78F6B2B34279
:10517000F3D2694E532200213000FEF7DBFF1022EC
:10518000FF21F01CFEF7D6FF30002022FF21133054
:10519000FEF7D0FF00F09AFC674B002B00D12DE703
:1051A00000E000BF2AE75E4B5C4A9846002627785D
:1051B0001B78002A1FD05E4A92469E423AD321D1E4
:1051C0005C4B38009847434601361B78F6B2B34231
:1051D000F3D2514E532200213000FEF7ABFF1022D4
:1051E000FF21F01CFEF7A6FF30002022FF21133024
:1051F000FEF7A0FF07E0380000F000FE43461B78F2
:10520000002BE6D0444E00F061FC2379B370F5E644
:105210000BB0F0BCBB46B246A946A046F0BD524614
:105220001268730094469B19DB006344002BB1D0D5
:105230005B6896E752461268730094469B19DB0040
:105240006344002BDED05B68BBE7380000F0D6FD7E
:1052500043461B78002B9DD18BE762792078A368A9
:1052600000F052FCCAE63548002800D146E700F0BD
:1052700037FC0121504608AA00E000BF002800D0FA
:10528000BCE63BE7202A00D19EE0002A00D035E7AB
:105290006379092B00D931E7294A9B00D3589F46EF
:1052A0007023217A0B4200D028E758460F330B4079
:1052B0005B00CE09C018194F8019C07C002F06D0A2
:1052C000174F3F78B84200D2A0E0C01BC0B2002800
:1052D00000D096E0002A00D047E11A4F0220627900
:1052E00090468243012A00D142E14246002A00D082
:1052F00004E75B449E193036F37806AA9B07DB0F60
:10530000023213805046022308A900F081FB75E6A3
:105310001C770010FC1E0020A41E00203D4500103C
:10532000F1270020F55F00100000000000000000E1
:105330007C1B0020FD5D001000000000000000004C
:1053400040770010A87700105A00D318B14ADB004C
:105350001268D318002B00D15AE71E6999E6237A08
:105360000F2B00D9CAE6AC4A5B44DB78002A05D093
:10537000AA4A127893425ED39B1ADBB2002B00D06C
:10538000BCE6A748A74E00F0ABFB01215046F368EE
:1053900008AA9847002800D030E66022160023793A
:1053A0001E401A4200D0A9E663790A3B012B00D9BE
:1053B000A4E600F095FB63790A2B00D120E150466A
:1053C00008A900F00DFB19E6237A0F2B00D995E60A
:1053D000914A5B44DB78002A06D0904A12789342C7
:1053E00000D2E6E09B1ADBB2002B00D086E68C48A8
:1053F0008C4E00F075FB01215046F36808AA9847CF
:105400003CE70027002A00D168E777E64700381814
:10541000804FC0003F683F18002A00D15EE7002F90
:1054200000D16BE6F86800F05BFB01215046FB6899
:1054300008AA984722E7774A5E00F3181668DB004F
:10544000F618002E00D159E6F0689CE7A279019287
:1054500073789A4207D07378002B00D046E1019B05
:10546000002B00D0EAE05B46019A504608A95A702A
:1054700000F0B6FAC2E5737806AA023213705046FD
:10548000012308A900F0C4FAB8E5E088030AC0B215
:105490000F2B00D932E664499A008A58974608A82B
:1054A00000F024FB5046A179FFF782FB02223378FB
:1054B00013433370A2E5E388012B00D01EE60822D7
:1054C000337893435A46137079E70220317806AB5C
:1054D0009A1C8B068908DB0F01400B4311E7E38818
:1054E000012B00D00AE6082233781343EAE74F4B3A
:1054F000002B00D102E600E000BF021E00D1FDE556
:10550000D37891781B020B43504608A900F080FA2B
:10551000B4E6474B002B00D1F0E500E000BF021ECF
:1055200000D1EBE55046137808A900F071FAA5E622
:105530002189FFF701FA021EF4D1DFE5022B00D129
:1055400012E13C4B002B00D1D8E500E000BF020087
:10555000002A00D1D2E5D3E7FFF7E6F912230200D3
:1055600008A9504600F054FA88E62D482D4F5AE716
:10557000E288002A08D142465B449E193036F3780F
:10558000012A21D09B072ED5002F00D136E5F868DF
:1055900000F0A6FAFB6808AA0121504698470020AF
:1055A00000F09EFA34235A46D35CDB0700D525E58C
:1055B00005E7184A5E00F3181668DB00F618002E9F
:1055C00000D19BE5F06814E79B07DDD51A4B1878EE
:1055D000FFF710FC0222F37893434246F370F3780E
:1055E0009343F370D0E7144B1878FFF7E7FB0222E0
:1055F000F37813430122F370F3781343F370C3E796
:1056000006AB9A1C5046012308A9167000F000FA58
:10561000F4E4C0467C1B00203D450010F12700202B
:10562000115F0010A87700106877001000000000DC
:105630000000000000000000AC0F0020581EC0B2A7
:10564000FFF776F9002800D158E543780593022B3F
:1056500000D053E50121C2790700931152110B408C
:105660000A4012015B0113435A4612782F318A43D4
:1056700013435A461370C37882781B021343C3182E
:1056800009370393039BBB4200D8ACE001227B782F
:1056900000920B2B03D1FB7800933B78FF187B78AB
:1056A000042B00D02AE50026039B584ADB1B9BB243
:1056B0000293574B04931B78B24263D0B846B3426F
:1056C00056D800D01AE5534B534F41465046029AE4
:1056D0009847082803D9029A824200D38AE0049BA3
:1056E00001361B78F6B2B342E9D207E55046FFF720
:1056F0004FFBB378454A0093454B002698461B78EC
:10570000002A0DD0454FB34225D820D1444B5046F6
:105710009847434601361B78F6B2B342F3D206E00F
:10572000504600F06BFB43461B78002B0FD15322F1
:1057300000215846FEF7FEFC5B461022FF21D81CD4
:10574000FEF7F8FC2022FF213648FEF7F3FC5B460B
:10575000009A9A7083E618233A6873439446634428
:10576000002BF4D05B68D2E7FFF7E2F80200EFE627
:105770002A4B1F6818237343FF18002F00D1BDE484
:10578000BB68A2E7029B39001A005046984600F019
:105790004BFB082800D8B1E44246824200D2ADE477
:1057A0001D4B9846009B012B28D000220AE0BB78B5
:1057B000D318DBB25B44D978FF2900D09EE40132D4
:1057C000DE70D2B2009B9A42F1D1804633000200D3
:1057D0003900144800F03CFD049B47441B78B34259
:1057E00000D34FE78AE4104B002B00D13BE600E0EA
:1057F00000BF38E63B0047469846D3E74246054B94
:1058000092689A42D1D1059B0093CEE73D450010A6
:10581000F1270020295E0010A87700107C1B0020D3
:10582000FD5D0010B71E002000000000F8B55746CF
:105830004E46DE4645460C00E0B516001F00002A25
:105840003CD0702398461E4B00259B461D4B9A4624
:105850001AE05B461B78200099465346997800F081
:10586000BBFC00281CD021004846FFF70DFA002899
:1058700016D0A378DA09012A19D00A9A01351370D3
:105880002378E418B54219DA6378052B08D1E37858
:105890009B079B0FBB4203D14246A3781A42D8D044
:1058A0000020F0BCBB46B246A946A046F8BD0B9A04
:1058B000013513702378E418B542E5DB0120F0E7E9
:1058C000AC0F0020A41E0020802310B51B0184B063
:1058D00001930E4B02901C6803916269EFF31083F1
:1058E00072B611680029FCD0BFF35F8FA36120005E
:1058F00001A900F0F9FD6269A369BFF35F8F002180
:10590000116083F3108804B010BDC046FC1E002057
:10591000702270B58B780C001A4201D0002070BD47
:10592000064B20001D78064B997800F055FC0028A6
:10593000F4D021002800FFF7A7F9F0E7AC0F002012
:10594000A41E0020074B080019687F2310B50340F0
:10595000C0095B0033301818034B181800F0F8FB2F
:1059600010BDC046F81E0020A41E0020074B0800F2
:1059700019687F2310B50340C0095B003330181845
:10598000034B181800F00CFC10BDC046F81E002098
:10599000A41E00207F2070B508400F4C4000CD09A8
:1059A000241864193034E5780020ED0700D570BD67
:1059B0000126E578094835430078E570FFF7ECF9F2
:1059C0000028F4D10122E3789343E370E3780332B3
:1059D0009343E370EBE7C046A41E0020AC0F002009
:1059E00070B50A4E0500300008220C00FEF7A8FB37
:1059F00000237F21F3602278B36091425B4128004D
:105A0000D90100220023FFF7C5FF70BD481E00200A
:105A1000F8B5CE46474691462A4E80B50822070083
:105A200030000D009846FEF78BFB4B46B360002319
:105A3000F381EC79A97924020C43231C444500D955
:105A400043469AB29046B381002C13D0002A1FD04F
:105A50004B46002B34D0131C402A1FD89BB29846CB
:105A600033787F2B20D80021174A43463800FFF7B0
:105A700091FF09E07F222B7838009A42644100238D
:105A80000022E101FFF786FFC0BCB946B046F8BD71
:105A900033787F2B11D980210022E6E740239BB287
:105AA000984633787F2BDED9074C42464946200082
:105AB000FEF746FB80212200D7E700210022D4E731
:105AC0000020E1E7481E0020641E002010B51422CB
:105AD00000210248FEF72EFB10BDC046481E0020E4
