:020000041000EA
:1000000000B5324B212058609868022188439860DF
:10001000D860186158612E4B002199600221596106
:100020000121F02299502B49196001219960352056
:1000300000F044F80222904214D00621196600F024
:1000400034F8196E01211966002018661A6600F04E
:100050002CF8196E196E196E052000F02FF8012189
:100060000842F9D1002199601B49196000215960AB
:100070001A491B48016001219960EB211966A021F2
:10008000196600F012F800219960164914480160C1
:100090000121996001BC002800D000471248134993
:1000A000086003C880F30888084703B5996A0420EC
:1000B0000142FBD001200142F8D103BD02B5186610
:1000C0001866FFF7F2FF186E186E02BD00000240BE
:1000D000000000180000070000035F00212200005C
:1000E000F4000018222000A00001001008ED00E03C
:1000F00000000000000000000000000074B24E7A12
:1001000000200420F7010010C3010010C5010010F9
:10011000C1010010C1010010C1010010C101001097
:10012000C1010010C1010010C1010010C701001081
:10013000C1010010C1010010C9010010CB01001065
:10014000CD010010CD010010CD010010CD01001037
:10015000CD010010CD010010CD010010CD01001027
:10016000CD010010CD010010CD010010CD01001017
:10017000CD010010CD010010CD010010CD01001007
:10018000CD010010CD010010CD010010CD010010F7
:10019000CD010010CD010010CD010010CD010010E7
:1001A000CD010010CD010010CD010010CD010010D7
:1001B000CD010010CD010010CD010010CD010010C7
:1001C00000BE00BE00BE00BE00BE00BEEFF3058054
:1001D000103800BEF2EB8871EC38011014390110B0
:1001E0003402001090A31AE700201F49086006C8D7
:1001F00081F3088810471D48006800282FD10DA4FE
:100200000ECC002902D000F012F8F9E71849194A7B
:10021000002000E001C19142FCD1174988471749ED
:1002200088471749884700BEFDE701C901C29A42C5
:10023000FBD3704714390110C0000020182900209A
:100240006C61011000000420000004206C610110AA
:10025000001004200010042000000000704709482E
:1002600004F03CF90047000008ED00E0000000D079
:100270001829002070370020612D001005030010A0
:10028000952E00105756000006005250ABB3605335
:100290006017011006005250861C030270170110EF
:1002A000060052505422A29D8017011005005250A2
:1002B000DE65F4686C610110F8B5C04610B5064CF7
:1002C0002378002B07D1054B002B02D0044800E017
:1002D00000BF0123237010BD202C0020000000006F
:1002E000C0130110044B10B5002B03D00349044880
:1002F00000E000BF10BDC04600000000242C00201C
:10030000C0130110F0B5DE4657464E464546E0B5EF
:1003100083B005F0E1FAFA20400101F021FF082343
:10032000354F0922082138000093013B00F098FF67
:100330000323324C0321042220000093013B00F0F0
:100340008FFF2F4805F068F938002E4900F08AFA2F
:10035000002803D12C4805F05FF9FEE72000294969
:1003600000F080FA002842D0284B00259A46284BFE
:10037000FF269946274B9846274B9B46504605F04B
:100380009FFA2900484605F09BFA0021380000F04A
:100390001DFC4146380000F0ABFF0A22290038005E
:1003A00001F024F80021380000F01AFD142001F0BB
:1003B000D7FE0021200000F0C9FD002811D05846CA
:1003C00005F07EFA05E0200000F060F8304005F00E
:1003D000D7F8200000F028F80028F4D10A2005F012
:1003E000CFF80A200135EDB201F0BAFEC6E70B489E
:1003F00005F012F9FEE7C0463C2C0020702C0020CE
:10040000C0130110806B951AD01301100014011055
:10041000141401101C14011024140110E81301100D
:10042000002070477047C046F0B5CE46474680B5BD
:1004300083B06B46591D13230B700D3B6B449946DB
:1004400001254A46002313702B000269D0279340F0
:100450003F06BB610C4B040001221800984610F0C7
:100460003FFF6B46DE1D320001234946404610F037
:1004700047FF23699D407D613078236AC01A03B02D
:10048000C0BCB946B046F0BD00C00340F0B5C6469A
:1004900000B503682A4A1B69040082B093424AD11E
:1004A0006B46591D13230B700D3B6B449846012579
:1004B0000023424613702B000269D02793403F0669
:1004C0000122BB611F4810F00BFF6B46DE1D32009E
:1004D000012341461B4810F013FF23699D407D61B5
:1004E0003078236AC01A002827D0236A06220133F5
:1004F00023626B460125591D00236A440B7013705B
:100500002B0090462269D02793403F060122BB6111
:100510000C4810F0E5FE6B46DE1D3200012341461B
:10052000084810F0EDFE23699D407D61307802B0EF
:1005300080BCB846F0BD9847D5E701204042F6E7B9
:100540002904001000C00340F0B5DE4657464E4671
:100550004546E0B585B002AB5F1D22233B7002AB80
:100560009E1D0125002333702B000C0001690092B1
:100570008B40D02109068B61814693468846012233
:100580003900314810F0ACFE02AA944607236344B8
:100590009A463100012352462B4810F0B1FE4B46DB
:1005A0001B6941469D404D615146DC4609782A0051
:1005B0008C4460460190FF2803D9FF20411A009126
:1005C0000190009900291FD001228B469046A34438
:1005D0002278D0253270424680219A402D0639700B
:1005E00019483900AA61012210F07AFE012352460F
:1005F0003100154810F084FE4B4642461B69013419
:100600009A406A615C45E3D1A223D0243B70019BF0
:10061000240633703900A2610B48012210F060FEFD
:10062000524601233100084810F06AFE4B461A6911
:10063000012393400098636105B0F0BCBB46B2460D
:10064000A946A046F0BDC04600C00340F0B5C6466E
:1006500000B50368434A1B69040082B0934200D08E
:100660007AE06B46591D13230B700D3B6B44984683
:1006700001250023424613702B000269D0279340C6
:100680003F060122BB61384810F02AFE6B46DE1D92
:10069000320001234146344810F032FE23699D4068
:1006A0007D613078236AC01A002857D001266A4637
:1006B0000D2300275371330097712269D025934091
:1006C0002D06AB616B460122591D274810F008FE2C
:1006D0006A466946012307320631234810F010FEAE
:1006E00033002269204893406A466B61D279904674
:1006F0006A4657719771AB616B460122591D10F024
:10070000EFFD6A466946012307320631164810F0AC
:10071000F7FD33002269694693406A466B61D779D9
:100720008D224A716A4641469171AB616B46012246
:10073000591D0D4810F0D4FD6A46694601230A4848
:100740000732063110F0DCFD236938009E406E61EF
:1007500002B080BCB846F0BD9847A5E701204042F2
:10076000F6E7C0462904001000C00340F0B5CE46AD
:10077000474680B585B06B46D9710368374A5B68D8
:100780000400934263D16A46222353730023937378
:100790000269013399469340D022120693610D23DA
:1007A0006B44190090460F2701222D4810F098FD48
:1007B0000E216F4401233A002948694410F0A0FD3E
:1007C0004B46226900269340424653613D78FF2DF7
:1007D0001ED169468D73D025A2222D064A73AB61C6
:1007E0000D236B44190001221D4810F079FD0E21E4
:1007F00001233A001A48694410F082FD012322695E
:1008000093406B61300005B0C0BCB946B046F0BD46
:100810006A466846D2798021827342464173936169
:100820000D236B44190001220D4810F059FD0E21D3
:1008300001233A000A48694410F062FD4B462269E0
:100840000135934042464E465361EDB2C1E76946D9
:100850000122073198470600D4E7C0464905001039
:1008600000C00340F0B54E46DE4645465746E0B56B
:100870000126040085B00069894600F0DBFD3300E5
:100880002269D025934060692D066B626B61431C21
:100890000FD000F0CFFD330062690A2093406B62F5
:1008A000AB6101F05DFC63690A209E406E6101F05E
:1008B00057FC0125C049C14807F074F901211020F7
:1008C00000F0A0FD0121122000F09CFD0121132069
:1008D00000F098FDA06800F0ADFD2A00A368B84EB6
:1008E0009A40D0231B065A625A613378BFF35B8F5C
:1008F0001D422CD002AB5F1D42233B7002AB9E1DFC
:10090000002322693370D0250133984693402D0689
:1009100001223900AB61A94810F0E2FC02AA0123D0
:1009200031000732A54810F0EBFC43462269002154
:10093000934002AA6B61D2798A46122A14D050469B
:1009400005B0F0BCBB46B246A946A046F0BD30009B
:1009500007F0C4F90028CDD0A36830009D40994B22
:100960005D6007F0D7F9C5E76F323A709346013AF8
:1009700032703900AB617F3A904810F0B1FC02AAA6
:100980000123310007328D4810F0BAFC434622693A
:1009900093404A46D1170193C9046B61530BE2613E
:1009A0001943D0040023884A03F030FE86233B70AD
:1009B000030C3370019B814601223900AB617F48F3
:1009C00010F08EFC02AA0123310007327B4810F0A0
:1009D00097FC434622693900934087226B613A7045
:1009E0004A46120A327075480122AB6110F078FC59
:1009F00002AA012331000732704810F081FC4346FF
:100A000022693900934088226B613A704A466B48EC
:100A100032700122AB6110F063FC02AA01233100A5
:100A20000732664810F06CFC434622693900934057
:100A30008E226B613A705246604832704246AB611A
:100A400010F04EFC02AA0123310007325B4810F07F
:100A500057FC43462269390093408F226B619146CF
:100A60003A705246554832704246AB6110F038FC3D
:100A700002AA012331000732504810F041FC4346DE
:100A80002269390093400C226B613A7052464B4800
:100A900032704246AB6110F023FC02AA0123310000
:100AA0000732464810F02CFC424623698C219A40BC
:100AB0006A613970032102ABDB7940480B43337024
:100AC0003900AA61012210F00BFC02AA01233100B7
:100AD00007323A4810F014FC43462269390093402B
:100AE000A6226B613A70A23A32703448AB61033A85
:100AF00010F0F6FB02AA0123310007322F4810F054
:100B0000FFFB4346226939009340CD226B613A7066
:100B1000493A32702948AB61833A10F0E1FB02AAEE
:100B2000012331000732254810F0EAFB43462269D1
:100B3000390093408B226B613A70603A32701F48E3
:100B4000AB612A3A10F0CCFB02AA01233100073234
:100B50001A4810F0D5FB4346226939009340892298
:100B60006B613A704A4615483270AB618E3A10F0AC
:100B7000B7FB02AA012331000732104810F0C0FB76
:100B800043462269390093405A466B610B483A70DC
:100B90003270AB61803A10F0A3FB02AA0123073246
:100BA0003100064810F0ACFB424623699A4001230D
:100BB0006A619A46C3E6C046D430000000C00340D4
:100BC000A42C0020C01F00200048E801F0B5D64644
:100BD0004F464646C0B582B06B4601275D1D9C1D41
:100BE000002323709A463B00026906009340D022FE
:100BF000120690462F70894693612900012277489A
:100C000010F06EFB6A46012307322100734810F092
:100C100077FB3A0033699A4043465A616B46DB7969
:100C2000DB439B0700D1B9E012232B70534623709E
:100C3000434629009A616948012210F051FB6A4637
:100C4000012321000732654810F05AFB3B0032694E
:100C50009340424653616A46D17908220A4200D045
:100C600085E081222A702270D0221206936190467C
:100C700029000122594810F033FB6A46012701235D
:100C800007322100554810F03BFB3B00326993408E
:100C9000424653614A46002A00D181E01D222A7053
:100CA000002222704246290077624C48936101225B
:100CB00010F016FB6A46012321000732474810F066
:100CC0001FFB3A0033699D219A4043465A616B46A7
:100CD00029700121DB790B432370434629009A6177
:100CE0003E48012210F0FCFA6A4601232100073237
:100CF0003A4810F005FB336901229F4043465F618B
:100D00008D232B70002323709946D0231B069F61EF
:100D100029003248984610F0E3FA6A460127012379
:100D2000210007322D4810F0EBFA3B003269290010
:100D3000934042465361A2222A704A46227042469C
:100D400026489361012210F0CBFA6A460123210064
:100D50002248073210F0D4FA336901209F404346FD
:100D60005F6102B0E0BCBA46B146A846F0BD227051
:100D7000922142462970194893612900012210F0FE
:100D8000AFFA6A46012307322100144810F0B8FA7E
:100D90003B00326993404246536162E70020E0E73E
:100DA00072621D222A704A462270424629009361CF
:100DB0000A48012210F094FA6A4601232100073202
:100DC000064810F09DFA3A0033699D219A40434647
:100DD0005A616B46DB792970BB437DE700C0034055
:100DE000F0B5D6464F464646C0B5040082B000294D
:100DF0003DD0036B002B00D19BE06B465F1DC023F1
:100E00003B706B4601259E1D402333702B00026909
:100E100039009340D0221206936191464A4801223C
:100E200010F05EFA07236B449846310001234246D6
:100E3000454810F065FA2B00226993404A465361F9
:100E40008122D0253A702D06023232703900AB6112
:100E5000823A3D4810F044FA0123424631003A48B4
:100E600010F04EFA0123226993406B615AE06B4601
:100E70005F1D81233B706B4601259E1D83233370CC
:100E80002B00026939009340D022120691469361EB
:100E90002D48012210F024FA07236B4498463100B4
:100EA00001234246284810F02BFA23694A469D4008
:100EB000556112229246113A914603E0002001F05A
:100EC0004FF9236952463A70002232704A46D025C3
:100ED0009A402D063900AA611B48012210F000FA41
:100EE000012342463100184810F00AFA4B462269A5
:100EF000934042466B61117808220A42DED092216B
:100F00003270397001223900AB610F4810F0E8F9F6
:100F10000123424631000C4810F0F2F94A46236999
:100F20009A406A61012002B0E0BCBA46B146A846C8
:100F3000F0BD0123026993406A46571D961D0722A2
:100F40006A4490467CE7C04600C00340F0B5DE46E8
:100F5000454657464E46E0B583B06B465D1D1223AD
:100F60002B706B4601279C1D002323709B463B0082
:100F7000026906009340D022120693618A46904689
:100F800029000122B54810F0ABF96A460123073267
:100F90002100B24810F0B4F93B0032699340424658
:100FA00053616A46D27991465246002A00DC33E109
:100FB0001D222A705A462270424629007762A748AD
:100FC0009361012210F08CF96A4601232100073257
:100FD000A24810F095F93A0033699D219A404346A2
:100FE0005A616B4629700121DB799C480B432370C1
:100FF000434629009A61012210F072F96A460123E2
:1010000007322100954810F07BF93B00326993408C
:1010100042465361A2222A70524622704246936190
:10102000012229008D4810F05BF96A460123210056
:1010300007328A4810F064F9336901229F40434621
:101040005F6192232B709A464B462370D0231B0678
:101050009F6129008148984610F042F96A460127AD
:101060000123210007327D4810F04AF93B00326924
:10107000290093404246536152462A704A462270E4
:10108000424676489361012210F02AF96A4601230C
:1010900021000732714810F033F93A0033694946AC
:1010A0009A4043465A6160230B40402B6BD100218C
:1010B000736A3162002B62D1132123702970434679
:1010C00029009A616548012210F00AF96A46012355
:1010D00021000732614810F013F93B003269D02734
:1010E0009340424653616A46D2793F0691461022A8
:1010F0002A700022290022705848BB61013210F08A
:10110000EFF86A46012321000732544810F0F8F83E
:1011100001233269984693406A468D217B61D279DA
:101120002970227029000122BB614C4810F0D8F8C8
:101130006A46012321000732484810F0E1F843468F
:1011400032692900934081227B6144482A702270D1
:10115000BB61803A10F0C4F86A46012307322100CF
:101160003E4810F0CDF8424633699A407A614846CD
:1011700003B0F0BCBB46B246A946A046F0BD222350
:1011800021702B709BE700232370434629002F70AA
:1011900032489A61012210F0A3F86A460123210027
:1011A00007322E4810F0ACF83B0032690021934022
:1011B000424653616A46D2798946862AD7D08D2223
:1011C0002A7042462170254893612900012210F0BF
:1011D00087F86A46012321000732204810F090F872
:1011E0003B003269290093404246536181222A70B4
:1011F00005322270424619489361012210F070F8BE
:101200006A46012321001548073210F079F8336946
:101210009F4043465F61AAE75A4672621D222A70C8
:101220005A4622704246290093610C48012210F070
:1012300057F86A46012321000732084810F060F889
:101240003A0033699D219A4043465A616B46DB79E7
:101250002970BB43237043469A61E1E600C0034016
:101260008361009B016142618360704770B5002318
:101270000821092507241048104A114E0830D6606D
:10128000556153601060916011619461D361136284
:1012900053629362D36213630A4AD6605561536006
:1012A0001060916011619461D36113625362936223
:1012B000D362136370BDC046401401103C2C002063
:1012C00000C00340702C0020F8B505000F00161E6A
:1012D0000CD0002402E00134A64207D02B6828007D
:1012E000395D1B6898470028F5D126003000F8BD0D
:1012F000F8B54746CE46050080B50F1E1DD00668DE
:1013000008000FF0B3F97468104B814680469C4288
:1013100016D100280CD0002403E00134A04507D0EA
:101320002E682800395D336898470028F5D1A1461A
:101330004846C0BCB946B046F8BD00239946F7E719
:10134000020039002800A0478146F1E7C9120010C9
:10135000F0B54746CE460D002023002180B58BB066
:10136000160001AA0700D154012E35D909AC05E0B9
:101370003033DBB2013C237096420ED82800310096
:1013800003F006F92A00CBB205000929F0D937335A
:10139000DBB2013C23709642F0D920000FF066F9D1
:1013A0003E68114B7568804681469D4216D10028E3
:1013B0000CD0002503E00135A94507D03E68380070
:1013C000615D336898470028F5D1A84640460BB0C8
:1013D000C0BCB946B046F0BD0A26C7E702002100EE
:1013E0003800A8478046F1E7C912001010B5002A5E
:1013F00003D103681B68984710BDD2B2FFF7A8FF5E
:10140000FAE7C046094A830094464022634410B577
:101410001C68C0006240C024144080225201134363
:101420001C60034B9C466044416010BD04C00140F9
:10143000004001400123D022834012069362936151
:10144000094A83009446402263441968C0004A4018
:10145000C02111408022520113431960034B9C4666
:10146000052360444360704704C0014000400140D0
:10147000024B18688007C00F7047C04600C0064086
:1014800070B5EFF3108C72B60D4D2B68002BFCD0AD
:10149000BFF35F8F0724CB08C618C05C01230C4044
:1014A000A3401C000440034207D103433370BFF341
:1014B0005F8F2C608CF3108870BD100001F0EEFC83
:1014C0002C0100D0F8B54746CE46884680B5EFF3EC
:1014D000108C72B6214D2C68002CFCD0BFF35F8FAE
:1014E0009A422CD8D4080727055D06190124174015
:1014F000BC402C421FD007210127894609E0D408AF
:10150000055D06194C4639001440A1400C002942E3
:1015100011D001329342F2D201204042BFF35F8FDB
:1015200000220E4B1A608CF3108800280FDBC0BC21
:10153000B946B046F8BD2C4310003470EEE7BFF357
:101540005F8F00232B608CF31088012040424346BC
:10155000002BECD0089801F0A1FCC0462C0100D073
:101560000021044B044ABFF35F8F02C39342FAD1B8
:101570007047C046000100D0800100D0044A1078B6
:10158000431CDBB2172B00D9102313707047C046E1
:10159000CC1F002000B5054B83B00100009318223A
:1015A0001F230348FFF78EFF03B000BD6C1401102A
:1015B0006032002001238340002904D0034A1360D5
:1015C000034A13607047034A1360FBE780E200E0C0
:1015D00000E100E080E100E001238340014A136064
:1015E0007047C04600E200E0084B10309B68800066
:1015F000C358002B07D0064A00209B1A2F229A427C
:101600004041C0B270470020FCE7C04600ED00E05A
:10161000D01F0020024B10309B688000C0587047DC
:1016200000ED00E070B50D00EFF3108672B60F4AC2
:101630001368002BFCD0BFF35F8F0D4B10309B68FD
:1016400084001B590B4A934203D09D4201D001F004
:101650003DFC074B9B681D51BFF35F8FBFF35F8F4E
:101660000022024B1A6086F3108870BD240100D05E
:1016700000ED00E0CD010010F0B557464E46DE46C5
:101680004546E0B585B0060002911700EFF3108BD8
:1016900072B6674A1368002BFCD0BFF35F8F00253A
:1016A000644B5D579A46002D00DAA4E06B00624C53
:1016B00003935B199B009846A146C1444B46524692
:1016C0009B79103613705D4BB2009B68019299585C
:1016D0000B1B2F2B34D95A4B994200D0A4E0039B0B
:1016E000584A9C46584B6544AD0063534346023309
:1016F0006519E418554B0121043B1B1B1B055B0DB1
:1017000013436B80524BEF71AB80FF23AB71029B95
:10171000AB604B460B431900484B019A9B689950AC
:10172000BFF35F8FBFF35F8F0022414B1A608BF3D3
:10173000108805B0F0BCBB46B246A946A046F0BD35
:1017400001200A008243D379BB422FD845464E463A
:10175000130040491B1B5B415943090D3A4B63532E
:101760003A4B02356519043B5B1B1B05354D5B0D80
:101770002B4373800426B446E0444444131F1B1BD0
:101780004C46A17102991B05A16049465B0D2B4394
:10179000A380314BE77101431360BDE75800C018C7
:1017A00080002018C679BE422BD902000623D356EA
:1017B000002BF3DA101D8246284880460426764224
:1017C000B446E14450464E46361A3005400D824636
:1017D00056461C48957106439680039A9446654484
:1017E0001D4AAD00641922604246A371029BA2808B
:1017F000E771A36090E701F069FB002553465D5750
:1018000054E7101D824690884005001584464046E6
:10181000D444664604302018301AE0260005400DF6
:10182000360230438046C9E701F050FB57E7C04617
:10183000240100D06A370020D01F002000ED00E016
:10184000CD01001000E0FFFF00A1FFFF00200020FD
:1018500001BDFFFFAAAA00000148804701BD0000AA
:10186000F0B5DE4657464E464546E0B50C0083B01F
:10187000EFF3108972B6584A1368002BFCD0BFF3FF
:101880005F8F564B9A68030010339F00D559544A16
:101890009046954232D0A54243D0524EAA1B2F2AE1
:1018A0002CD801228240924651464F4A126811407C
:1018B000019151464D4A1160BFF35F8FEFF30582EE
:1018C0009346002A33D101232A009A4393689C420D
:1018D00008D177E04B005B189B00F3189968A14290
:1018E0002AD01A00062151560029F3DA019B002B59
:1018F00019D052463E4B1A603B4B1A60374B9B68DF
:10190000DD51BFF35F8FBFF35F8F0022324B1A6050
:1019100089F3108803B0F0BCBB46B246A946A04686
:10192000F0BD1500EAE75246304B1A60E6E79342F5
:10193000C9D001F0CBFAC6E706215956002921DBB0
:101940004A005018800034188046A0689860E079FA
:10195000D871062020569871002824DBA488F01A3C
:101960006405241544440019E0240005400D2402B8
:101970002043988052181F4B9200B6181A7819709D
:10198000B271B3E7594600290FD1FF3191711A495D
:10199000918018490A789A71184A9B1B5B415A43F7
:1019A000120D0A70A2E71648E3E7164A1649D21A42
:1019B000083A5002400D01439980144952080A43E5
:1019C000DA8093E70621515613000029B8DA5A4607
:1019D000002AEAD14546DCE7240100D000ED00E012
:1019E000CD010010D01F002000E100E080E100E008
:1019F00080E200E06A37002001BDFFFFAAAA0000D4
:101A000001BD00000A20002000F0FFFF00F8FFFFEA
:101A100070B5EFF3058101240443EFF3108C72B627
:101A2000214A1368002BFCD0BFF35F8F1F4B0500CA
:101A30001F4AED1A6D416A43120D1E4D8900AE68B2
:101A400052B27658A6421CD00621595691421CD05B
:101A500012215956914222D01E215956914220D02E
:101A60002A2159560324914210D0134B19781A7029
:101A70008171BFF35F8F00220B4B1A608CF31088CB
:101A800070BDAB680D4C5C50EFE700246100091994
:101A900089005B18FF21997109499980E5E70124C4
:101AA000F4E70224F2E7C046240100D0D01F002052
:101AB000AAAA000000ED00E06A370020CD01001066
:101AC00001BDFFFF054B064A1360064A13605360D1
:101AD0009360D3601361536193617047808080800D
:101AE00000E400E004E400E000B5074B83B001002F
:101AF0000093002205230548FFF7E4FC002801DBE2
:101B00001F23181A03B000BD881401106F3700207E
:101B1000024B9C46614489000160704740000034DC
:101B200010B50400FFF72AFD01002000FFF7F0FFC9
:101B3000FF232371BFF35F8F10BDC04610B50400B3
:101B4000FFF71CFD01002000FFF7E2FFFF23A38049
:101B5000BFF35F8F10BDC04610B504000120FFF732
:101B600019FD044B9C46604480002060BFF35F8FEA
:101B700010BDC04640000034034B9C4661448900C0
:101B80000160BFF35F8F70474000003483680B48EB
:101B900010B5844661446244090112019A1859182B
:101BA00054684B6801209C4201D802D00020C0B28A
:101BB00010BD12680B689A42F9D8F7E7FFFFFF0FD4
:101BC0000A4B1968EFF3108072B60A68002AFCD03D
:101BD000BFF35F8F1B68BFF35F8F00221A6080F333
:101BE000108840BF002000217047C04638370020D1
:101BF000F8B557464E464546DE46E0B599460CAB2D
:101C00001C780DAB1B78060090469A460768002C9E
:101C100011D1BC7B002C42D065003B682D19033DDF
:101C200059194B78BB73002B00D1FB7300238B70C9
:101C30004B700B7004E065003B682D19033D59198A
:101C4000B2682A4B94464246E3181B0163441A606B
:101C50004A465A600A9A9A600B9ADA6000238B709F
:101C60004B700B707B7B9B46002B2BD02200594680
:101C7000B8687B6898473A68002816D05B46584693
:101C80005B005B445519033BA870D118D35C002B53
:101C900000D06B705B460C707B73A34513D0F0BC17
:101CA000BB46B246A946A046F8BD5B465B005B4416
:101CB000033BD3189C705119525D002A00D05A7012
:101CC0005B460B707C7342464B46307D00F0C0FB98
:101CD000051E06D05346002B03D12100306800F0CA
:101CE000DBFD0E9B002BDAD01D70D8E7FFFFFF0F46
:101CF000F0B5DE4657464E4645460023E0B58BB06C
:101D00000893674B8200D45800239B46099000F04B
:101D100015FB626806000F00EFF3108572B61368BA
:101D2000002BFCD0BFF35F8F23689C465B7B9946FA
:101D3000002B00D169E0A2685A4B90464B441B012E
:101D4000984443461A685B6810001900801BB9412B
:101D5000002900DC63E0099800F07AFB00230022F0
:101D6000984600230692079300239A466368BFF3C0
:101D70005F8F5A461A6085F310885346002B08D1AE
:101D80000028C4D10BB0F0BCBB46B246A946A04661
:101D9000F0BD089B414618024B461843D047626885
:101DA00006000F00EFF3108572B61368002BFCD00D
:101DB000BFF35F8F002F50DB33003B4302D023691A
:101DC000002B61D12368D97B002907D04A00521823
:101DD00019688C4649466244033A51709A7B002A3E
:101DE00001D14A469A734A46DA734B46E168013B91
:101DF000CA5C0132CA545B4623616368BFF35F8FDC
:101E00005A461A6085F3108881E70023002298461D
:101E1000002306920793002300209A46A6E7002994
:101E200002D1002800D096E70021604600F0B2FC05
:101E300043461A685B680692079343469B689A4636
:101E40004346DB689846E3684B44013B1B780893A4
:101E50001B0203432361002088E72369002BB1D0D4
:101E6000069A079B921BBB41002B15DB5946049138
:101E700001210391494602914146019151462000BA
:101E80000091FFF7B5FEB6E700F058FA32003B00CC
:101E900012184B41002BE9DA0122034B5242E5E7CD
:101EA0001C370020FFFFFF0FFFFFFF7F10B5144C12
:101EB0006368002B04D00A211248FFF729FE10BDE9
:101EC0002300114A1021206800F07EFB032000F05F
:101ED00029FA032000F026FB03200C4900F072FAD7
:101EE000FFF74CFB0A4B9C4603232375D0231B06AC
:101EF0001B6860446375074B80006060DC60DAE754
:101F000018200020383700208D1B0010F11C001015
:101F1000400000341C370020004870471820002083
:101F2000F0B54E464546DE465746E0B585B00193CE
:101F300010AB1B7806000393002399469846009245
:101F40007268EFF3108B72B61368002BFCD0BFF3EE
:101F50005F8F3568AC7B002C3DD067002B683F1944
:101F6000033FDB195A78AA73002A00D1EA73B168DB
:101F7000474A8C4600980199A218120162441060E9
:101F800051600E9991600F99D16042469A705A70D3
:101F90001A706B7B9A46002B67D022001900A86844
:101FA0006B6898472A68002852D0534650465B0019
:101FB0005344D719033BB870D118D35C002B00D021
:101FC0007B7053460C706B7354454FD0F3681B19EC
:101FD000013B187800E000207368BFF35F8F424632
:101FE0001A608BF31088002C4FD04B46002B08D181
:101FF0000002204305B0F0BCBB46B246A946A0464D
:10200000F0BD039B002B3ED00E9B00200F999847FC
:10201000030004000D000B4335D000290ADA009AB2
:10202000019B121BAB4100920193002B0ADB039B27
:10203000994685E700F082F924184D4100940195F6
:10204000002DF4DA0123134C5B4200930194EEE778
:1020500053465B005344033BD3189C70D119D25DA7
:10206000002A00D05A7053460B706C73307D009A72
:10207000019B00F0EDF981460028A7D021003068CF
:1020800000F00AFCA2E70020B4E701204042B1E7DB
:10209000FFFFFF0FFFFFFF7F407D7047F0B504009B
:1020A0000D0006267642F717C64636196F4100B571
:1020B00084B08F4214D811D000F040F932003B00B8
:1020C000121A8B41002B15DC002B3ED0200029007A
:1020D00000F068F904B080BCB846F0BD8642EBD988
:1020E0000026002700F02AF932003B00121A8B412B
:1020F000002BE9DD002302930193154B320000937E
:1021000014483B00FFF70CFF0028DFDB0023984654
:10211000BC46114A114F7B6A9C4504D8B96A8E426D
:10212000D4D99C45D2D11168EFF3108072B60B68F8
:10213000002BFCD0BFF35F8F1368BFF35F8F414666
:10214000196080F3108820BFE5E7002ABED0D1E7F0
:10215000C11B001018200020383700200040054027
:1021600070B5060000F0EAF8FA2204000D00002322
:1021700030000021920003F029F80019694100297C
:1021800002DBFFF78BFF70BD012001494042F8E7F9
:10219000FFFFFF7FF0B5EFF30583CE46474680B5DE
:1021A00005000C0085B0002B12D02C4A0020536A89
:1021B0009C4203D8926A0130AA4204D305B0C0BC45
:1021C000B946B046F0BDE01A421E9041C0B2F5E7F4
:1021D000234E02930193234B0200009330000B0027
:1021E000FFF79EFE031EE0DD20BF7168EFF310874E
:1021F00072B60A68002AFCD0BFF35F8FDAB2944649
:102200003068427B62451DD0FF221A40510089464A
:102210000168914488464946414403398978002938
:1022200013D0F1681B0A88464244013A1278DBB2A7
:102230009A420FD07368BFF35F8F00221A6087F352
:102240001088B2E7FF221A40EBE732699342F1D1DE
:102250003161EFE7614600F01FFBEBE7004005400E
:1022600018200020C11B0010F0B5EFF30582D64600
:102270004F4646461000C0B51038EFF3108872B6CE
:10228000214C2368002BFCD0BFF35F8F0123190082
:1022900081401E4D1F006963AA461D4D29601D4DDA
:1022A0002E78AC463500C5402F402B4209D1BFF3F4
:1022B0005F8F276088F31088E0BCBA46B146A84615
:1022C000F0BD5346144D5F6A83005D59AF420ED393
:1022D000124A8E439B5862461670BFF35F8F0022EE
:1022E000226088F31088002BE6D09847E4E70C4B77
:1022F00092009C46624413681360BFF35F8F002313
:10230000236088F31088D7E7280100D000400540FB
:102310003C7005406E3700204437002048310020D3
:10232000D03F054010B50100024A0348FFF7A8F866
:1023300010BDC046B014011069370020034B596A24
:102340000A00986A596A8A42FAD1704700400540EB
:1023500070B504000D00124A536A1900966A536A58
:102360008B42FAD13000190024184D41AB4211D8EC
:102370000ED02B000A494A6A9A42FCD307D1084A78
:1023800002E0516A994202D1916AA142F9D370BD2B
:10239000A642EED9012301246442E5175B42E9E736
:1023A00000400540064A536A9942FCD807D1044BC5
:1023B00002E05A6A914202D19A6A8242F9D3704786
:1023C0000040054070B504000D00EFF3108672B6B2
:1023D0001A4A1368002BFCD0BFF35F8F002D1BD06F
:1023E0002000FFF717F9164981420AD02000FFF7B5
:1023F00019F901212000FFF7DDF80123A340114A5C
:102400001360114BA400E550BFF35F8F00220B4B0C
:102410001A6086F3108870BD0B4BA200D5500122C4
:10242000A2400A4920000B7893430B700449FFF740
:1024300017FA00212000FFF7BDF8E5E7280100D0DA
:102440006922001038600540483100206E370020B6
:10245000F0B54F46D6464646C0B507002C4C616ADB
:102460000D00A66A616AA942FAD18B4208D805D04C
:102470000120E0BCBA46B146A846F0BDB242F7D949
:10248000EFF3108A72B6234801680029FCD0BFF32D
:102490005F8F0125BD4020491D4C8846097889463B
:1024A0002943C9B28C46414660460870391D1B4815
:1024B000890065630A51B9000B50216A0020294246
:1024C00019D0616A0800A66A616A8142FAD18B421A
:1024D00019D801D1B24216D8CC4516D00C4B1F20CA
:1024E0001D625D6301230740BB400D4A1E38136027
:1024F00043464A461A70BFF35F8F0022054B1A60AD
:102500008AF31088B5E70020F5E70120F3E7C0461D
:1025100000400540280100D06E37002044370020DD
:1025200080E200E0EFF3108C72B60A490B68002BD2
:10253000FCD0BFF35F8F01238340074A0748136233
:1025400002789A430270BFF35F8F00230B608CF315
:1025500010887047280100D0004005406E370020E9
:1025600070B5050014001600002915D00C00002AD3
:1025700012D080686B689847296800280ED07300D5
:102580009B196200033B1219CB18033A9C70881800
:102590008A5C002A15D10670200070BD63001B19EB
:1025A0007200033B9219CB18033A9E7088188A5C1C
:1025B000002A02D104703400EEE75A70047034002F
:1025C000EAE75A700670E7E730B583600023CCB2C3
:1025D00043730133047342608373C4730D00006856
:1025E000012C06D9421C0133DBB2137003329C422A
:1025F000F9D1FF2129404B00591800234018033816
:10260000437030BDF8B5CE46474606000C0080B595
:10261000002907D04D0003686D18033D5A195778FB
:10262000002F04D12000C0BCB946B046F8BD7900E7
:10263000C91903398846434459788946002159709D
:10264000517073683A002100806898473368002809
:1026500014D042469A18947059195B5D002B00D033
:1026600053700F70270049463000FFF7CBFF390049
:1026700002003000FFF774FF0400D3E742464146F2
:102680005D19AF709A185B5C002B00D06B701470F2
:10269000E9E7C046F0B557464546DE464E46E0B54A
:1026A0000D006B0001685B19DF1E0400C85D83B07C
:1026B0000192CA19002850D043001B18033BCB18C5
:1026C0005E78B446002E1AD1019E002E42D0E67BE1
:1026D000002E04D073009B19CB18033B5D70A37BC5
:1026E000002B00D1A573E57300282FD10023537070
:1026F00003B0F0BCBB46B246A946A046F0BD72008E
:102700006244033A89184A78904600224A709146FA
:102710005A70010032002000FFF722FF4346824634
:10272000002B07D05B0021684344033BCB185A7849
:10273000002A16D1424651462000FFF711FF2168BA
:10274000019BCA19002BC2D10028CFD043001B180F
:10275000033BCB1800219970C8E7019B002BB6D131
:10276000C4E7500080180338091848788346484663
:102770004870587041462000FFF7F2FE59468046E7
:102780002000FFF73FFF414602002000FFF7E8FE70
:102790008046CFE7F0B557464546DE464E46E0B5A3
:1027A00083B00191457B04006B0000685B19DF1E5C
:1027B000C15DC219002952D04B005B18033BC318FE
:1027C0005E78B446002E1CD1019E002E44D0E67BDC
:1027D000002E04D073009B19C318033B5D70A37BCC
:1027E000002B00D1A573E573002931D10023280007
:1027F0005370617303B0F0BCBB46B246A946A04615
:10280000F0BD72006244033A80184278904600227C
:10281000427091465A7020003200FFF7A1FE4346F5
:102820008246002B07D05B0021684344033BCB1852
:102830005A78002A17D1424651462000FFF790FEF1
:10284000019B01002068C219002BC0D10029CDD006
:102850004B005B18033BC31800209870C6E7019B30
:10286000002BB4D1C2E7500080180338091848780B
:10287000834648464870587041462000FFF770FE76
:10288000594680462000FFF7BDFE41460200200069
:10289000FFF766FE8046CEE770B5040000292CD015
:1028A000437B8B422ED00568480040180338281817
:1028B0008278002A21D053009B18033BEA5CEE1873
:1028C0008A4202D11BE0002A08D053009B18033B28
:1028D000EB185A788A42F6D142785A7000230122C6
:1028E000837043702000FFF7D5FE617B020020005B
:1028F000FFF736FE6073012000E0002070BD4378D2
:102900003370EBE701221900FFF7C4FE607301206A
:10291000F4E7C04630B50C2083B000F0B9F9FEF7FB
:10292000A7FD00280ED0994B994A1A605A609A6008
:10293000DA601A615A619A61DA611A62954A5A62DA
:1029400003B030BD944CA06700F0F6F90122934B20
:102950001A60636C012BFCD10322914B1A608E4AE2
:10296000936B012BFCD1013301218E4A8E480093D9
:10297000043300F03DF905238C4A009301218C4873
:1029800000F036F98B4B5A68FF2A02D88022520099
:102990005A6080227D4C824B21691201854D1A605C
:1029A000002907D0606901F0F3FD431C5800C018EE
:1029B0000338FDD2E0217F4B02201A6811408022AB
:1029C00052012A43116019684840032101401160F7
:1029D00004219A681142FCD08022802192012A436E
:1029E00009011160802252005A60734B2361734BBE
:1029F0005968FF2900D85A600321684A6F4B11605B
:102A000002399A681142FCD0E0201A6810408022F6
:102A100052011A4310601868484003210140022007
:102A2000116066498A681042FCD0802292011343EB
:102A3000802212011A608022614B52004A60636159
:102A4000604B5968FF2900D85A6080225E4BE169CB
:102A500012015C4D1A60002907D0606901F098FDF1
:102A6000431C5800C0180338FDD2E02255490B68BA
:102A70001A4080235B012B431A60802380229B0134
:102A80002B4312011A608022414B52004A60E361DD
:102A90004E4B5968FF2900D85A6080224C4B216A5E
:102AA00012014A4D1A60002907D0606901F070FDDB
:102AB000431C5800C0180338FDD2E02243490B687C
:102AC0001A4080235B012B431A60802380229B01E4
:102AD0002B4312011A60802380225B004B602C4B39
:102AE000D20223623B4B5968914200D25A60802245
:102AF000394B616A1201374D1A60002907D06069AD
:102B000001F046FD431C5800C0180338FDD2E022F6
:102B100030490B681A4080235B012B431A608023E5
:102B200080229B012B4312011A608023DB024B6041
:102B3000184B6362294B5A68FF2A02D88022520040
:102B40005A608022264BA1691201244D1A60002987
:102B500007D0606901F01CFD431C5800C018033801
:102B6000FDD2E0221D490B681A4080235B012B43F4
:102B70001A60802380229B012B4312011A6080235C
:102B80005B004B600E4BA361DAE6C0466432002066
:102B9000006CDC021BB70000008000403CB000402D
:102BA00030B00040002F685900800240008C8647FA
:102BB00000C0024030800040001BB7003C80004055
:102BC000405973075480004054B00040608000407A
:102BD00060B000406C8000406CB000404880004015
:102BE00048B00040014B8000C0587047643200205C
:102BF000F8B5040021481D0017000E0001F0C8FCC4
:102C00000100380001F0C4FC069B29041B03194392
:102C10002368002B20DB1A4B1A4DE21853425A410D
:102C200080235B019C461203174B62441A60174BCA
:102C30001A601700AB689F43FBD1C022231D92018D
:102C40001A4321232660A06013602368002BFCDA5E
:102C50000823E1601360F8BD3F2322681340B342AC
:102C6000D9D1A3681B051B0D8342D4D1EE22E368A2
:102C7000D20213408B42CED1EDE7C046001BB70015
:102C80000040FDBF00C0004000E0004000F00040F8
:102C90008023024A9B000343D362704700800540B3
:102CA00010B5140080221B4BD2051A6000281AD0E0
:102CB0000123194A1843194BDA61194A42401A6232
:102CC000596298628022134BD2051A601549164A40
:102CD0001160E022D2041A60002C07D18022134B2D
:102CE00012061A6010BD0D4BD861EBE763011B1B88
:102CF0009A008023121912015B049A4200D30C4AF5
:102D00000C4B1A60054B5A608022084BD2051A60A2
:102D1000E8E7C04600B00540D3C007B000800540DA
:102D20002D3FF84FFCFF01000820014000A00540A6
:102D3000FFFFFF000C370020AA23064A1B01136087
:102D40002F230549D360054B19605368002BFCDA2B
:102D50007047C0460040024000B0FA0000600240E8
:102D60002C4B2D4A70B51A602C4A2D4B2D491A60F8
:102D700014008B689C43FBD12B4D2C4EB54208D2DE
:102D8000013E761BB60808CD984723000134B342B4
:102D9000F9D1FFF7BFFD264A214B1A60214A9368FB
:102DA000DB43DB01DD09002BF9D14022214B224C12
:102DB000224E9A675A671A67DA66B44208D22368C5
:102DC0002000002B20D00834FEF7B8FEB442F6D322
:102DD0001B4E1C4CC022A168300002F0B5FAA66060
:102DE000FEF7BEFBFEF76EFEFFF760F8164C174EBF
:102DF000B44208D2013E361BB60808CC98472B00D7
:102E000001359E42F9D170BD0834FEF789FEB44207
:102E1000D5D3DDE700E00040BFCDFBFEFE7F3C00E8
:102E200000F0004000C00040F828002008290020E1
:102E3000FFFFFF0100F00140E8280020F8280020F3
:102E40000000002000ED00E00829002018290020E3
:102E500000BEFDE7094A03001068002805D00849B4
:102E6000C3188B4207D81360704706480449C3183B
:102E700010608B42F7D901204042F5E7043300206F
:102E800000000420703700200020704701204042DD
:102E90007047C04610B5FFF7DBFFC0460FB400B562
:102EA000084883B002F0B8FB049B002B07D005A9AB
:102EB0001800019101F0F2FA034802F0ADFB012085
:102EC000FFF7C6FFD4140110041C011010B501480F
:102ED000FFF7E4FFE41401109A4200D288547047CF
:102EE0007047C046F8B557464E464546DE46E0B503
:102EF00099460A9B07009A460D9B88469346150003
:102F00000B9E9B0710D10C9B9E420DD29D1B140063
:102F10000E005D4422004B46013431002020B847AA
:102F2000A542F7D1B0460B9E002E27D04446751916
:102F30005346AA1B013E985D21004B46B847002E20
:102F4000F6D123002C0098460D9B9B070FD55B46BE
:102F5000E51A0C9BAB420AD94646984622004B46DE
:102F6000310020200135B8470134A845F6D82000AB
:102F7000F0BCBB46B246A946A046F8BD2C00E3E72C
:102F8000F0B54F464646D646C0B584B098460EAB1F
:102F90001B78129F994694460D9C109B119EBA0770
:102FA00025D4002E4BD19C4200D3BFE001223A40F1
:102FB00092461F2C00D9B8E00C9A551E302201E031
:102FC000202C03D001342A55A342F9D85246002AB6
:102FD0000DD0A6420BD9202C44D00C9A551E30227D
:102FE00001E0202C3ED001342A55B442F9D1FA0632
:102FF0004DD57A053FD4002C39D10F9B102B00D131
:1030000079E00F9B022B00D18AE030230C9A012437
:1030100013704B46002B3FD02D230C9A13550134CF
:103020000C9B624600930397434602960194FFF778
:1030300059FF04B0E0BCBA46B146A846F0BD012233
:1030400015003D40AA463A422FD04A46002A02D1F6
:103050000C323A4200D0013E9C42BAD21F2CABD96E
:10306000202E27D92024FA06DAD57A0503D4A342E4
:103070002DD0A6422BD00F9B102B32D0022B20D06C
:10308000202CCDD030220C9B1B191A700134202C1F
:10309000C6D04B46002BBFD17B070DD43B07BFD515
:1030A00020230C9A13550134BAE79C429FD21F2C5F
:1030B00000D881E720249AE72B230C9A135501347A
:1030C000AEE7202CACD00C9B1B1901343AE0631EF8
:1030D000012C92D00F9A102A2AD0022A2FD01C003D
:1030E000D0E7BB060ED4202C9AD00C9B1A190134C1
:1030F00078231370C4E7BB060DD478230C9A0124FF
:103100001370BFE7202C00D18AE758220C9B1B19B3
:103110001A700134B4E758230C9A01241370B1E7F4
:103120000C9A603301241370ACE7202400265EE77C
:10313000023CBA06E9D40C9A12191C00D8E70C9A82
:103140009246534462221A709AE7C04610B500288E
:1031500000D110BD02F014FAFBE7C0460B0010B519
:10316000002802D049681B68984710BDF0B5DE46BC
:1031700057464E464546E0B59BB09B46249B894644
:103180009846259B0B900C924046424619009A4661
:1031900001F0C7FC002800D0D8E00122404651468B
:1031A000774B524201F0B8FC002800D0CEE001225B
:1031B00040465146734B524201F098FC002800D023
:1031C000C4E0002200234046514601F08FFC002855
:1031D00000D0B9E1424653460A9209938023289AC7
:1031E000DB001A400E92289A1A4201D10623269338
:1031F0000A9A099B1600134300D0C7E0289B0025BC
:1032000000261B0500D49BE100230D93269A0D9BFD
:103210009A4200DC9FE1D01A431E26938023289A0D
:10322000DB001A430023002728920D93279B0024DC
:10323000BB4200D9DC1B0223289A1A400E92289A1E
:10324000134203D07B427B415B421C400D9B002B11
:1032500007D00A9809992A00330001F0E6FB0A908A
:103260000991002200234046514601F03FFC00280E
:1032700005D0802000068446099961440991289A66
:10328000414B0B9D13400493269B0A9A0293099B82
:1032900003940092019349465B4628000C9A00F083
:1032A0008BF90400002F62D0289B220098061F2370
:1032B000C0179843631C984649465B466530A8474B
:1032C0000D9B0025DA179C18DB0F9A465440013FEE
:1032D00001E0202D13D00AAA94461F232000634446
:1032E0000A2101355E1901F053F9303131702000A7
:1032F0000A2101F04DF926000400092EE9D8052322
:103300000693002304930A330393534605970B9FB8
:10331000029312AB009342465B4649463800019542
:10332000FFF72EFE0E9B0400002B20D00C9BC51A2D
:10333000279BAB421BD91E0022005B46494620203A
:103340000135B8470134AE42F6D810E0289B42461A
:103350000493279B49460393269B0B98029353465D
:10336000009201935B460C9A00F026F904002000BD
:103370001BB0F0BCBB46B246A946A046F0BDC04655
:10338000FFFFEF7FFFFFEFFFFFF7FFFF734B099F8B
:103390009C467800400D604401F0D6FB704A714BAA
:1033A00001F061FB704A714B01F036FB3B03704A40
:1033B0001B0B1A4304000D00300011006D4B00225E
:1033C00001F021FB6C4A6D4B01F04DFB02000B003C
:1033D0002000290001F020FB01F0CEFB0D9001F050
:1033E000B3FB674A674B04000D0001F03CFB002271
:1033F000654B01F011FB01F0BFFB644A0600644B12
:103400002000290001F02FFB040030000D000F9672
:1034100001F09AFB5F4A604B01F025FB02000B00B4
:103420002000290001F0EFFA02000B0006000F0057
:1034300001F019FB320004000D003B0030003900A0
:1034400001F0EAFA002210901191544B200029005B
:1034500001F0EBFA0022524B01F0DEFA02000B0001
:103460002000290001F0E1FA00224E4B01F0D4FACD
:1034700002000B002000290001F0D7FA0D00802186
:10348000040032003B000020C90501F0BCFA020034
:103490000B002000290001F0BFFA02000B00109879
:1034A000119901F0C2FA0022314B01F0B5FA3E4BFE
:1034B0000F9C9C4664440022230501F0D4FA0500C9
:1034C0000E0002000B000A98099901F00FFB00287A
:1034D0000AD00D9B2800013B31000D930022304B98
:1034E00001F0A3FA05000E00C6270D992B006331E9
:1034F0008F42BF4128997F420437090500D495E6E1
:10350000334300D182E6099C284A2100284B0A98BF
:1035100001F0FAFA002808D000222100254B0A9871
:1035200001F0E4FA002800D070E6269B002B00D1C1
:103530007CE60E9B5A1E9341269AD31A269375E673
:10354000002304270D9371E643460A9380231B064C
:103550005344099342E6002326935FE601FCFFFFF4
:10356000FB799F501344D33FB3C8608B288AC63F72
:103570000000F03F0000F83F61436F63A787D23F30
:1035800071A379094F930A400000E03F1655B5BB7F
:10359000B16B0240EF39FAFE422EE63F00002C40AC
:1035A0000000244000001840FF0300002D431CEBE6
:1035B000E2361A3F80842E41F0B54E46DE4657462D
:1035C0004546E0B597B09946209E219F229B8346B1
:1035D000984607910C923B0032003000390001F010
:1035E000A0FA002800D0A9E1012230003900CA4B1E
:1035F000524201F07BFA002800D0E1E001223000C5
:103600003900C64B524201F087FA002800D0B7E0DB
:10361000002230003900C24B01F07EFA002800D0B1
:1036200099E0002230003900BE4B01F05FFA00281B
:1036300000D090E0002200233000390001F056FA5B
:10364000002800D0B1E000230D93249B5B0501D43A
:103650000623984608AB9C46172200243023414697
:10366000624404E0013413550139202C01D00929AA
:10367000F8D888463000390001F07EFA4346DA0077
:10368000A94B05009B181A685B680892099301F022
:103690005BFA02000B003000390001F0B4F9089A1F
:1036A000099B01F0E0F90A900B9101F089FA82463A
:1036B00001F046FA02000B000A980B9901F0A3F9F9
:1036C00000229A4B0A900B9101F026FA002800D1B3
:1036D000C0E001239C46E244504601F031FA02006A
:1036E0000B000898099901F007FA002802D000237E
:1036F0009A4601354346002B6AD008AB17269C46F4
:1037000008956644554614E001235B4243440A2170
:1037100028009A4600F03CFF0134303137193970E7
:1037200028000A2100F034FF092D00D8D0E0D0464F
:103730000500202CE8D10EAB98460323249A1340B1
:10374000012B00D196E02023249A01930392239A1F
:10375000434602921EE0249B58460493239B009606
:103760000197039343460C9A029307994B46FFF740
:10377000FDFC17B0F0BCBB46B246A946A046F0BD62
:10378000249B5B070ED40322694B24990192039179
:1037900023990291009358464B460C9A0799FFF7DC
:1037A000A1FBE6E70422634BEFE73B003200002079
:1037B000002101F028F9012306000F000D9344E7D2
:1037C000249B0393239B0293042301935A4BE1E729
:1037D000280001F0B9F902000B003000390001F0B7
:1037E00012F9524B002206000F0001F07FF90EABD8
:1037F000984600280AD10022300039004B4B01F0D6
:103800008BF9002802D1EB0700D50135202C94D08C
:1038100008AA94461723280063440A2101341E197C
:1038200000F08EFE3031280031700A2100F088FE51
:10383000051EEBD10323249A1340012B1BD0202C0F
:1038400000D180E70D9B002B35D02D224146631C13
:103850000A5579E700220A980B99344B01F046F992
:10386000002800D046E75346002B51D101239C4647
:10387000E2443FE72024239B002BE0D00D9B002B4C
:1038800003D1249A0C33134202D0239B013B239390
:10389000239BA342D3D908AB9C4617223023624412
:1038A000202C00D14FE72399013413558C42C6D008
:1038B000202CF8D147E7249B5B0724D4249A2300CB
:1038C000120700D440E72022414601330A553BE766
:1038D0005746089D202C00D12DE72200302140467C
:1038E000002F09D00132B154202A00D123E7D3435D
:1038F0001B191B18002BF5D10EAB98462E23414601
:10390000541C8B5482E72B224146631C0A551BE74B
:10391000DB0700D4EEE6A9E7FFFFEFFFFFFFEF7F35
:1039200065CDCD4165CDCDC1E81601100000E03F69
:10393000F0140110F414011000150110249B0393DE
:10394000239B029303230193004B23E7FC140110F4
:10395000F0B5DE464E4657464546E0B59FB01C00E2
:10396000289B91460993C94AC94B8B4608901A6017
:10397000002900D118E2002320789A46002800D1BF
:103980001AE226001D005C460AE02A006F1C4B4626
:10399000089D2100A8473D0001363078002870D0EE
:1039A0002528F2D110239B46083B9A46043B9846B3
:1039B000023B00219C46721C107816000300203B3D
:1039C000DBB2102B03D8B34F9B00FB589F4603007C
:1039D000303B092B32D900230A932A2868D00023D0
:1039E00098462E283ED00300683BDBB2122B1CD831
:1039F000A94A9B00D3589F46012301321943DBE7B4
:103A0000634601321943D7E7434601321943D3E7EE
:103A10005B4601321943CFE7534601321943CBE7E6
:103A200080235B007078194301360300253BDBB22D
:103A3000532BAAD8994A9B00D3589F4600270300CE
:103A4000B800C01901364000C018337830381A0069
:103A5000303A0700092AF3D90A9018000023984643
:103A60002E28C0D180237078DB0019430300303B3F
:103A7000721C092B00D8A1E12A2800D1B2E116005E
:103A8000B1E7A346AA462C00D14503D801235B42E7
:103A90004B449A464B46524659460020089DA8473B
:103AA00020001FB0F0BCBB46B246A946A046F0BD00
:103AB000099B40CB0A96002E03DB50780993561CD5
:103AC0008DE72838014370420A9009935078561CBC
:103AD00085E7782800D1DFE1582800D14CE26F2833
:103AE00000D14FE3622801D100F030FC10230A001E
:103AF0009A430B92692801D000F0A9FC0A230C9389
:103B00004B0500D5D0E10B9A802311009B00194092
:103B10008B461A4200D0A1E2802311005B001940BD
:103B20008A461A4200D0B6E313005B0600D5EDE2E8
:103B3000130009991B0601D400F076FC08C91BB2DA
:103B4000D8171A18424092B209919346DA0F12928E
:103B5000002B09D1802310220B99DB000B409143ED
:103B60000B91002B00D0E4E20B9A6123920600D562
:103B700041230EA91F228C46DBB262440A3B5F46FA
:103B80001395A34655460C9CB2460D9316000AE0C9
:103B90003033DBB201357355A74200D2EDE2202D60
:103BA00000D1EAE207002100380000F0F1FCCBB2BE
:103BB0000929EDD90D9A94466344DBB2EAE78023E4
:103BC0009B007078194301362FE77078682800D180
:103BD000CDE180230136194327E770786C2800D1A6
:103BE000BFE180235B00194301361EE7462800D160
:103BF0009BE10722099B0491073393430A9A19001A
:103C00000392424602920CC90898009201930991CE
:103C10002A004B462100FFF7CFFC01360500BCE629
:103C20002A006F1C4B46089D21002520A84701361D
:103C30003D00B2E68B0700D4ADE1099B2A009A460D
:103C40006B1C9846534601CB21009A46089F4B4671
:103C5000C0B2B8470A9B9C466544012B00D886E257
:103C6000089B4746B04626004C4699463A0023003A
:103C7000013731002020C847AF42F7D1A146534653
:103C8000340046460993013687E6C0465139001094
:103C900008370020081501104C1501109815011067
:103CA000099B04CB9B4643460992002B00D1C6E0FA
:103CB00013789C46002B00D1BDE34346013B099A93
:103CC0000133D0180A9F130001E0834203D05A78D1
:103CD0000133002AF9D1099A0A979B1A0B93802382
:103CE0000A00DB001A400C92194204D00B9B43459A
:103CF00001D943460B9302231A000A400D920B424E
:103D000000D187E16046002800D168E10C9B002BC0
:103D100000D10DE1A844C246099B57465B1B98465B
:103D2000089BB2462A0026004C46994609E023002B
:103D30003100551CC8474346585D002800D126E194
:103D40002A009742F3D1A1463D00340056460D9B10
:103D5000002B00D043E15B46013609931DE6099B29
:103D60001A0008CA9246002B48D0212211438B46E4
:103D70000EA884461F216144099500220F27A446FE
:103D80000D0002E0202A0CD00B003C001C4020005B
:103D90003730092C00D807380132A85419090F2BE5
:103DA000F0D86446099D32E0DC4B2078089300236C
:103DB0009A46002800D0E4E5002465E64346060064
:103DC0000A9F9800C018013240008019167803003D
:103DD00030003038303B0928F3D9300098461600BF
:103DE0000A9700E6099B023604CB9046D243404630
:103DF000D2171040804609933078F4E5102208006D
:103E0000904311321043834600224905B0D55B46EA
:103E1000069308230593434604931023039300233A
:103E2000029316AB019200932A004B46210008989A
:103E3000FFF7A6F85346050001360993ADE5137860
:103E40009C46002B00D1F7E202235B4237E7202398
:103E500002009A43472A04D180231B0119430223FD
:103E60009843452801D1202319430722099B049137
:103E7000073393430A9A19000392424602920CC9EF
:103E800008980092019309912A004B462100FFF700
:103E90006DF90136050080E510230C930C230A0010
:103EA0009A430B924B0503D501230B9A9A430B922D
:103EB000692800D127E6642800D124E60B9A8023E4
:103EC00011009B0019408B461A4200D066E1802306
:103ED00011005B0019408A461A4200D039E21300F3
:103EE0005B0600D53CE113001B0600D4A6E2099B4B
:103EF00004CB1204120C934609935B46002B00D0AE
:103F00009AE10B9A1033110099430B91520500D49A
:103F100092E100239A460B9B06930A9B0593434626
:103F200004930C9B039300230CE12023194360E6C8
:103F3000099B0A9A5B1B98464B4691461F00B24666
:103F40002600089C2A003B003100A047434601356B
:103F5000585D0028F6D14A463400B94656460A92C2
:103F6000F5E6C0239B00B078194302365DE5C02317
:103F7000B0781943023658E50C230A009A431433EB
:103F80001A43103B0B920C934B058DD496E7A14638
:103F900034005646DBE60A9A012A00D853E26B1E2B
:103FA0009F18089BB04626004C4699462A002300DD
:103FB000013531002020C847BD42F7D1A146340069
:103FC0004646099B3A0001CB210098467D1C4B4692
:103FD000089FC0B2B847434601360993DDE40B9B06
:103FE0000A9AA8469A4200D8B5E694466544ED1A66
:103FF000089B4746B04626004C4699463A002300A7
:10400000013731002020C847AF42F7D1A146340024
:104010004646A0E60B9A0A99531C914200D814E236
:104020004B199B1A1F00089BB24626004C46994626
:104030002A002300013531002020C847BD42F7D1B6
:104040000A9BA14601330B93099B34001B7856460B
:104050009C466046002800D058E67CE60722099B73
:1040600007339343013294469C4462465F68099249
:104070001A68FB171093119310981199030053407D
:104080000E930B007B400F9394460E9A0F9B121ACF
:104090008B410E920F93FB0F6246129300233A431B
:1040A0009B463DD00B9A6123920600D54123002206
:1040B000DBB20EA90A3B8C4692460D9343461F3253
:1040C00062441395159655460E9E0F9FA246904644
:1040D0000C9C14930CE03032D2B2434601355A5551
:1040E000BB4500D18AE1202D00D18AE106000F00F6
:1040F000220000233000390000F088FAD2B2092AE9
:10410000E9D90D9B9C466244D2B2E6E7FF230999A8
:1041100004C913401A00099117E5C046E12E0010AA
:104120000B9A1033110099430B915205BAD5002315
:104130009A460B9B06930A9B0593434604930C9B5C
:104140000393129B02935346019316AB2A000093EC
:1041500021004B460898FEF713FF013605001CE4CA
:10416000FF22099B02CB11408B460993C5E65346BB
:10417000454609930136FFF710FC56465C46AA46B1
:10418000139DD6E708230C930B910B99642800D05C
:1041900084E60B9B5B0500D586E6B4E40722099B09
:1041A00007339343013294469C44624609921A684D
:1041B0005B6810009B4613005A46134307D10B9AC5
:1041C0001033110099430B91520500D5A1E60B9ACB
:1041D0006123920600D541230022DBB20EA90A3BDF
:1041E0008C4692460D9343461F3262445F461295B9
:1041F000A34655460400B24690460C9E13930DE02C
:104200003032D2B2434601355A550023BB4200D169
:1042100000E1202D00D100E104000F003200002356
:104220002000390000F0F2F9D2B2092AE8D90D9B3A
:104230009C466244D2B2E5E70B9A6123920600D510
:104240004123DBB20EA90A3B1F228C460D932300AB
:1042500062445C461295170055469B46B2460C9E3A
:1042600008E03033DBB201357B55B4420ED3202D4C
:104270000CD004003100200000F08AF9CBB20929EB
:10428000EFD90D9A94466344DBB2ECE756465C46A0
:10429000AA46129D3FE6099B1A0008CAD917139235
:1042A0005A184A409246DA0F1292002B08D1802306
:1042B00010220B99DB000B4091430B91002B2BD16B
:1042C0000B9A6123920600D541230EAA1F2794461C
:1042D000DBB20A3B0D9567445D460993A3465446FD
:1042E000B2460C9E08E03033DBB201357B55B44258
:1042F0000ED3202D0CD004003100200000F048F92E
:10430000CBB20929EFD9099A94466344DBB2ECE7B2
:1043100056465C46AB460D9D0B9B2A0006930A9BB6
:1043200021000593434604930C9B08980393129B2A
:10433000013602935B46019316AB00934B46FEF7A2
:104340001FFE139B05000993FFF727FB02230C9325
:104350001AE7099B04CB92461293002A08D18023C6
:1043600010220B99DB000B4091430B91002B2BD1BA
:104370000B9A6123920600D541230EAA1F2794466B
:10438000DBB20A3B0D9567445D460993A34654464C
:10439000B2460C9E08E03033DBB201357B55B442A7
:1043A0000ED3202D0CD004003100200000F0F0F8D6
:1043B000CBB20929EFD9099A94466344DBB2ECE702
:1043C00056465C46AB460D9D0B9B2A0006930A9B06
:1043D00021000593434604930C9B08980393002304
:1043E00002935B46019316AB00934B46FEF7C8FD64
:1043F000129B050009930136FFF7CFFAB44200D8AB
:1044000071E6149B54460E960F97AA469846159E41
:10441000139D8EE6A64200D8FBE6139B56469846AF
:10442000AA465C46129D76E508C9D8171A1842407C
:104430000991FFF78AFB00230B9350E4099B04CBFF
:104440009346099359E52F00BBE50B9301E6063B24
:104450000C939AE60EB4012210B585B007AC08CCD7
:1044600001000094524204480394FFF771FA05B02A
:1044700010BC08BC03B01847D92E001000B585B099
:104480000391012102900093034813004A4202A9BC
:10449000FFF75EFA05B000BD5D31001010B5094AA6
:1044A0000300146884B0002C08D001220091064853
:1044B000524203A9A047012004B010BD01F0ACF89E
:1044C0000020F9E7083700204D3100100148042191
:1044D000014B184740200020FD440010142310B564
:1044E0000100188804331B88984710BD162310B5A7
:1044F0000100188802331B88984710BDF8B547465D
:10450000CE4680B50F1E19D01423994604330400FB
:104510000025012698464B461888434621681B888B
:10452000984701C4431E9841013540420640AF42BE
:10453000F1D13000C0BCB946B046F8BD0126F8E75D
:10454000124A936F9B0815D29066D166002905D058
:10455000FFE7FFE7FFE7516F106F704704B5802159
:104560000906C2175140002800D0C8430CF090FE45
:10457000002104BDF0B5146E556E576F166FFFF72E
:10458000E3FF1466556657671667F0BD000000D05C
:10459000114A936F9B0813D210665166002905D00B
:1045A000FFE7FFE7FFE7516F106F704704B5002882
:1045B00001D00020C0430CF06BFE002104BDC046BA
:1045C000F0B5146E556E576F166FFFF7E5FF146662
:1045D000556657671667F0BD000000D094464A4AFA
:1045E000926F9208624601D228E0C046F0B5464E6E
:1045F000346E756E776F366F00F020F89446424A3D
:1046000014665566576716676246F0BD94463E4A83
:10461000926F9208624601D254E0C046F0B53A4E1D
:10462000346E756E776F366F00F04CF89446364AEC
:1046300014665566576716676246F0BD002B24DB8B
:1046400011D000293EDA00B5C943404200D1013102
:1046500000F038F8C943404200D10131DB435242F7
:1046600000D1013300BD002AEBD1002801D100297F
:1046700005D00020C90FC90701D1C043410800B5CA
:104680000CF0C6FD0022002300BD00B500290ADBA6
:10469000DB43524200D1013300F014F8C9434042D9
:1046A00000D1013100BDC943404200D10131DB439B
:1046B000524200D1013300F005F8DB43524200D1F1
:1046C000013300BD002923D1002B18D1002A0CD0C2
:1046D000BC460D4F38667A6600210023FFE7FFE7EE
:1046E000FFE77A6F386F67467047002801D00748A8
:1046F000010000B50CF08CFD0022002300BD02007B
:104700000B00002000217047000000D0FFFFFFFFDA
:10471000002B00D0BFE0130C28D1002AE7D080B4D2
:10472000114F39667A66FFE7FFE730B4040C7B6F00
:10473000396F1B0423433B667A66FFE7FFE7FFE719
:10474000C04684B27B6F3D6F1B0423433B667A6691
:10475000FFE7FFE7C04600232C042D0C7A6F386F6B
:1047600000196941B0BC7047000000D0F0B5944614
:104770000025140E01D112020835140F01D11201C7
:104780000435940F01D192000235D40F01D15200AB
:104790000135D40B0134254F7C66254C3C660E0C4C
:1047A00093B2FFE7FFE7FFE73C6F6643360C770302
:1047B000BE467343DF0B5B04C01AB941130C73434D
:1047C000DB18C91ACE086643360CB64493B273435D
:1047D0001F0F1B01C01AB941130C73431F0B1B059C
:1047E000C01AB941860D8F023E436643360C092D2F
:1047F00024DB520A7243801A7703460A6643360C5A
:1048000016235B1BDE40DF40BF1964466643821BF4
:104810007046043506330100D940A840C01900D3C2
:104820000131A24206D20023F0BD0000000000D0FA
:10483000FFFFFFFF121B0130F3D3F1E709277F1BB6
:10484000FE406446A2B27243801A00D20139220CA3
:104850007243130C1204821A99410B0070460435FE
:1048600013370100F940A840801900D30131002B13
:1048700002D1A2420AD2F0BD013000D30131121B95
:10488000FAD2013BF8D1A24200D2F0BD013000D3F0
:104890000131121BF7E7F0B51C0C00D080E00CB41E
:1048A00000251C0A04D11B02160E334312020835E0
:1048B0001C0B04D11B01160F3343120104359C0B52
:1048C00004D19B00960F334392000235DC0B02D1DA
:1048D00092185B4101351C00971864410134464F22
:1048E0007C66464C3C660E0CFFE7FFE7FFE7C046E0
:1048F0003C6F6643360C7703BE4697B27743C01BC6
:1049000000D20139C01B00D201399FB27743C91BC5
:10491000C91B170C77437E04FF0B801BB941CE08DF
:104920006643360C0C2D33DBB644120B1F053A439D
:104930001B0B97B27743C01B00D201399FB277435C
:10494000C91B170C77433E043F0C801BB941860DF1
:104950008F023E43664329277F1BFE400C3D77466E
:10496000AF40BF1930BCA2B2ABB272437343801ADE
:104970009941220C7243130C1204801A99410200CF
:104980000B000137001BA941F9D2781E0021F0BDB0
:104990000C277F1BFE4077467F0BAF40FF19E0E7F7
:1049A00000245D1C07D0144F7D663966FFE7FFE7E2
:1049B000FFE7FFE73C6F95B29EB265436643401B3D
:1049C000B141150C1E0C6543664336042F0C3E4363
:1049D0002D04401BB141994204D202000B0020007B
:1049E0000021F0BD01D19042F7D3801A99410134E2
:1049F0009942F2D3F6E70000000000D0FFFFFFFF6E
:104A000048404140484018B41B4B5B68FC4601934A
:104A100008BD04DF9F4C001018B4174B1B68FC4600
:104A2000019308BD00DFA94C00109446134A926F11
:104A3000920809D2624618B40F4BDB68FC4601931A
:104A400008BD0CDF614F00100C4AF0B5146E556EB6
:104A5000576F166F6246FFF7EEFF084A14665566F9
:104A600057671667F0BD18B4034B9B68FC4601936B
:104A700008BD08DF054E0010202A0020000000D0ED
:104A8000FFB550404240504059404B40594000E033
:104A9000FFB5154F4C00640D03D0BC4204D10C038C
:104AA00014D80020090D09055C00640D03D0BC4238
:104AB00004D11C030AD800221B0D1B0501264B4004
:104AC00009D44B4003D58B4200D18242FFBD9942AD
:104AD000FCD19042FFBD0B43DB1803431343F5D0D9
:104AE000C9434918FFBD0000FF07000000B5FFF7EC
:104AF000CFFF804100BDC04600B5FFF7C9FF01D917
:104B0000002000BD012000BD00B5FFF7B9FF01D9AD
:104B1000002000BD012000BD00B5FFF7B1FF8041BE
:104B200000BD012040054A00121804D85A0012188E
:104B300001D8002070470120704700207047000016
:104B40000021002805D17047C1174840401AFAD00B
:104B5000C90713B5064B1B6898470CBC441CA24000
:104B60001005120B0349091B09051943114310BD18
:104B7000343700201F04000010B54C00620D802364
:104B8000D218DB00D21A5B057E2A10DD9E3A13DABA
:104B9000CC170903490819435242D140640001343B
:104BA0001532202A05DAD0400843604310BD0020AA
:104BB00010BD0846604310BDC80FC018013810BDB5
:104BC00018B4044B5B6AFC46019308BD24DF115105
:104BD00000100000202A0020132370B51D78012D3D
:104BE00015D010DD1C48FFF781FC1C4C0100802211
:104BF000200000F0A9FB022D06D01948FFF76EFC3B
:104C0000184B186070BD154C174BA364F5E7164B95
:104C1000124C23606360A360E36023616361A3615E
:104C2000E36123626362A362E36223636363A3635A
:104C3000E36323646364A364E36423656365A3653A
:104C4000E36523666366A366E36623676367A3671A
:104C5000E367A364D1E7C04653440000202A002044
:104C60004C330000343700206D4C001007B560460F
:104C700001880A0A0230DF2AFAD1C9B2820804D3B5
:104C8000028840880004104300E00068014A505048
:104C9000039007BD202A00200FB403BC0CBCF0B564
:104CA0000124E407634000E0F0B50C0DCF0F661E51
:104CB0003605891B640503D3C943404200D3013143
:104CC000640D03D0661CF60A07D0E41B00207F00A9
:104CD000791C89078912803C24031D0DDF0F6E1E8D
:104CE00036059B1B6D0503D3DB43524200D30133D2
:104CF0006D0D03D06E1CF60A07D0ED1B00227F005D
:104D00007B1C9B079B12803D2D032F1B661B58D4D9
:104D1000A446202E46DA20371400BC401D00BD40BA
:104D2000F24033412A4380185941CB0F05D0C94383
:104D3000C043002264425041514162464D0D28D18A
:104D40000D0D07D100281FD0241940414941013AD7
:104D50000D0DF9D0640006D3013000D30131002CD1
:104D600001D140084000013A0BD4941CE40A04D15C
:104D700012051144DB071944F0BDD907204B194334
:104D800000E0D9070020F0BD0029DDD1002CDBD1E7
:104D9000F0BD0132C6074008CD0728434908002E60
:104DA000E1D0D9E73C2E29DA203E40371400BC4040
:104DB00000D00124F24014431A00BB401C43D31717
:104DC000ACE7AC46202F08DA20360400B4400D00D2
:104DD000B540F84039412843A5E73C2F0CDA203F85
:104DE00040360400B44000D00124F84004430800D9
:104DF000B1400C43C117EAE710001900002494E702
:104E00000000F07FF0B50C0D661E3605891BE60A22
:104E10006405640D02D0651CED0A04D00020012158
:104E20000905803C2403A4461C0D671E3F05DB1BBF
:104E3000E70A6405640D02D0651CED0A04D0002267
:104E400001231B05803C24037740644497B484B25B
:104E500096B27443070C7E43150C6F4380B26843CF
:104E6000361802D3012000043F183004350C001915
:104E70007D41844688B29AB250430C0C62431F0CA9
:104E80007C438EB27E43921902D301263604A419C4
:104E90001604170C3618674101BC81B29AB251430F
:104EA000040C62431B0C5C4380B25843121802D3BB
:104EB0000120000424181004130C401863412D181D
:104EC0005E410020474106BC88B293B258430C0CA7
:104ED0006343120C544389B251435B1802D301213E
:104EE0000904641819041A0C091862416D18564116
:104EF0000020474118BCF902720D1143F0026A0DFF
:104F00001043ED020A0D03D16D1940414941013BA7
:104F1000124E9B1B7600B3420ED26D0007D30130B8
:104F2000002671416646354301D1400840001B050B
:104F3000C918E4072144F0BD0BDA013306D1013072
:104F400004D101314F0D01D04908F2E7E1070020FB
:104F5000F0BD013631050020EBE70000FF03000043
:104F6000F0B51C0D671E3F05DB1BE70A6405640DE9
:104F700002D0661CF60A04D0002201231B05803CE7
:104F80002403D0252D060026F6432E661E096E66E4
:104F9000CE0FF619B44649004F0D02D07E1CF60A1A
:104FA00003D000200021403F3F033E1BB600B44425
:104FB000013F7F05C91B49082E6F013676089C0208
:104FC000950D25437543ED137543AD1301356D10F4
:104FD000F603761B0CB4CC02450D2C43A2B2B3B23F
:104FE0005A43270C7B43350C6F43A4B26C431B1907
:104FF00002D3012424043F191C041D0CA4187D4174
:1050000024196D41009A91B2ACB26143170C7C43F4
:105010002B0C5F4392B25A43A41802D3012212040C
:10502000BF182204230C52187B41019C6C431B19AE
:10503000520ED9010A434401A01A81B2B2B25143BF
:1050400003145A43360C734387B27743D617D219E9
:1050500000277E4136049B191704160C7F185E4109
:105060007316ED18F301002680337541A90F06D1A0
:105070006400690AE8055B0A184309D22FE004229C
:10508000944480337541A90AA8059B0A184326D386
:10509000404149412404009A019B0D005543641B83
:1050A0004343E41A95B286B27543170C7E43030C52
:1050B0005F4392B25A43B61802D301221204BF18BA
:1050C0003204330C52197B4152429C41002C02D4D1
:1050D0000022013051414008CA071043490802B07C
:1050E0006246D7079210084BD218084B9A4203D257
:1050F00012058918C919F0BD0020002A01DC390009
:10510000F0BD01331905F5E7FD030000FE070000BF
:10511000002200B5203200F004F8080000BD0000B5
:1051200000220B150AD410B5944600F031F814147F
:10513000013400DA0021CB17144C20470020002155
:1051400070476244343A0CD40C2A07DA04009140C8
:10515000904052422032D440214310BDD843D9431D
:1051600010BD203207D40C469440524220321141E7
:10517000D040204310BD0800C917203203D452424A
:105180002032104110BD1800190010BD435100100D
:105190000A0DCC0F531E1B05C91A520503D3C94370
:1051A000404200D30131520D03D0531CDB0A07D01B
:1051B000121B00206400611C89078912803A1203C7
:1051C000014BD21A70470000FF03000051434343D4
:1051D000C9188C46110C83B24B4310B4040C6143C4
:1051E00092B280B2504362431C041B0C001910BCE5
:1051F00059411304120CC01851416144704700001A
:10520000132310B512481C78FFF770F90100012C28
:105210000AD003DD80220F4800F096F80E48FFF711
:105220005DF90E4B186010BD0A4C5422200000F0AE
:105230008BF80B4B6365A365E36523666366A36622
:10524000E36623676367A367E3672362E361E5E7D8
:1052500053460000202B00204C3300003437002040
:105260006552001007B5604601880A0A0230DF2A3D
:10527000FAD1C9B2820804D30288408800041043DE
:1052800000E00068014A5050039007BD202B002029
:1052900070B504000A4E30000CF07AF820000AF0D5
:1052A00071FC050030000BF0ABFF002D05D0054B65
:1052B0002C199C4201D8280070BD0348FDF7EEFD73
:1052C000E8280020000004203817011070B5050000
:1052D0000C000B4E30000CF05BF8280021000AF0A7
:1052E00071FF050030000BF08BFF002D05D0054B42
:1052F0002C199C4201D8280070BD0348FDF7CEFD53
:10530000E8280020000004203817011070B50400C0
:10531000054D28000CF03CF820000AF03DFC280068
:105320000BF06EFF70BDC046E82800200148042144
:10533000014B184750200020FD440010014B1B6812
:105340001847000050200020014B5B681847000000
:105350005020002010B5FFF7D9FF10BD030010B595
:10536000080011001B68984710BDC046F0B54646BE
:105370004F46D646C0B5437D80460E001700002B31
:1053800046D0002A3FDD4B1E9946244B01250024C0
:1053900000209A460DE04B461B5D0D3B5A4253419F
:1053A000325DDBB20A2A0BD02B00013401359F425B
:1053B0001ADD002CEFD14346325D1B7D0A2AF3D162
:1053C000002BF1D1A04204DA4346211A1B683018A1
:1053D0009847434650461B680221984701342800ED
:1053E0002B0001359F42E4DC874204DD4346391A35
:1053F0001B6830189847F619013E33780D3B5A4226
:10540000534142461375E0BCBA46B146A846F0BDCA
:105410000368110030009847F5E7C046B017011047
:10542000F0B5C6460C000968060000B5802906D014
:105430004B1C23606418267180BCB846F0BD0F4B2E
:105440001D68002D16D0231D98460D4F02E02D69D2
:10545000002D0FD02B68002BF9D03B68002B01D01A
:10546000AB42F4D1280041462268FFF77FFF2D6947
:10547000002DEFD101230021DBE7C046F4320020EC
:1054800000330020F0B5DE4657464E464546E0B5AF
:1054900085B017001C0006000D00FCF74FFF00232D
:1054A000304A12184B41002B58DB2F4908008A461E
:1054B0000BF02EFF01906B1C03D130000BF0D6F8DF
:1054C0000500002C25D1294B9846294B1C68002C3F
:1054D00015D0002F20D1274F02E02469002C0ED0D8
:1054E0002368002BF9D03B68002B01D0A342F4D1F4
:1054F00020002A003100C0472469002CF0D1019B14
:10550000002B27D105B0F0BCBB46B246A946A04649
:10551000F0BD194B9846D8E7164B994602ABDF1DF4
:105520000A239B4602E02469002CE8D02368002B64
:10553000F9D04B461B68002B01D0A342F3D12A00BF
:1055400031002000C0475B460122390020003B703B
:10555000C047E8E750460BF053FED3E70122074B64
:105560005242A2E740420F00F02800206D53001085
:10557000F4320020003300205D530010FFFFFF7F56
:10558000F0B5CE46474680B583B06B460600DD1DBC
:105590002870FCF7D3FE00231A4A12184B41002B47
:1055A0002BDB1949080088460BF0B2FE174B8146E9
:1055B0001C68002C14D0164F02E02469002C0FD078
:1055C0002368002BF9D03B68002B01D0A342F4D113
:1055D000200001222900FFF7C9FE2469002CEFD129
:1055E0004B46002B05D1300003B0C0BCB946B046D5
:1055F000F0BD40460BF004FEF5E70122054B524298
:10560000CFE7C04640420F00F0280020F4320020CF
:1056100000330020FFFFFF7F70B504000BF026F879
:1056200000230100050001222000FFF72BFF084B9B
:105630001C68002C06D06368002B05D098472469AD
:10564000002CF8D1280070BD2469002CF3D1F9E7B3
:10565000F4320020F0B54746D64680B516000F005C
:1056600083B000282DD11C4B1C4D1A685B68019239
:1056700000931B4B9A461B4B984653461C68002CC4
:1056800003D114E02469002C11D02B68002B01D029
:10569000A342F7D1A368002BF4D03100380098471B
:1056A0000028EFDD03B0C0BCBA46B046F0BD4346AB
:1056B00000995B6A994209D842460198926A8242EF
:1056C00002D301204042EDE79942FAD101200021A6
:1056D000FCF73EFED1E7C046A814011000330020BD
:1056E000F432002000400540F0B54646D6464F460D
:1056F0000138C0B50D00160001283ED8FCF71EFE8B
:1057000000231F4A12184B41002B32DB1D49B046C3
:10571000080089460BF0FCFD8246731C03D128006B
:105720000AF0A4FF8046184B1C68002C14D0174FB9
:1057300002E02469002C0FD02368002BF9D03B68CD
:10574000002B01D0A342F4D1200042462900FFF7EC
:105750000DFE2469002CEFD15346002B05D13000FB
:10576000E0BCBA46B146A846F0BD48460BF048FD3D
:10577000F5E70122064B5242C8E701267642EEE7E2
:1057800040420F00F0280020F432002000330020B7
:10579000FFFFFF7F012040427047C046012040428A
:1057A0007047C046012040427047C04603000222B5
:1057B00000209A42404170470A4A1368002B05D1E5
:1057C0000CE01A001B691032002B07D09842F8D168
:1057D000002902D103691360016170470029FCD0E0
:1057E0001060FAE7F4320020F0B5CE46474680B5A7
:1057F000A5B004000D00FCF7A1FD00232A4A1218F1
:105800004B41002B49DB294E30000BF081FD00237A
:105810000700039322002B00254803A9FEF72EFE64
:10582000039B8046002B14D1224B1C68002C06D011
:105830006368002B0BD098472469002CF8D1002F07
:1058400027D1404625B0C0BCB946B046F0BD24695A
:10585000ECE7184B1D689946002D22D0164C02E04B
:105860002D69002D11D02B68002BF9D02368002B57
:1058700001D09D42F4D1039B28001A0004A9019392
:10588000FFF774FD2D69002DEDD14B4603951C6883
:10589000CCE730000BF0B4FCD3E70122074B5242B7
:1058A000B1E70395CBE7C04640420F00F028002047
:1058B00021540010F432002000330020FFFFFF7F4E
:1058C0000FB400B583B004A901C90191FFF78CFFA3
:1058D00003B008BC04B0184710B500F0D9F910BDEA
:1058E0007047C0460022014B1A7070476B3700208A
:1058F0004B790020FF2B0BD18B79002B08D1CB7972
:10590000012B05D1082A03D98A78024B09301A7075
:105910007047C0466B3700200120704770B50129E1
:1059200009D115495379107909781B0203430020E6
:10593000994202D070BD0120FCE75378012B08D0BA
:10594000022BF7D1002064220021FDF7A9F90120E4
:10595000F0E79478D278050012021443D20502D5FC
:10596000620A93401D000548FEF7B8FD7F21030041
:10597000214028009847C0466B3700205542000060
:105980000123037000487047B417011048780B7862
:105990008A7800021843120410439622CB7810B57F
:1059A0001B060343D200934200D010BD0348FEF70C
:1059B00095FD0021030008009847C04655420000AD
:1059C000024B1860024B19607047C04658320020E5
:1059D0005C32002010B5024B1878FBF7FDFD10BDBE
:1059E0006C370020114B70B51A68002A1AD0EFF3FB
:1059F000108172B610680028FCD0BFF35F8F0022C0
:105A00000B48596002701B68BFF35F8F1A6081F307
:105A1000108800240025074B1878FBF7DDFD2900CE
:105A2000200070BDFA240025A400F4E714370020FC
:105A30006D3700206C37002070B5040000200E0088
:105A400001F002FB002835D0002001F015FB0028F2
:105A500030D0FCF773FC0023184A12184B41002B7E
:105A600024DB174D28000BF053FC002822D0002027
:105A700001F0EAFA00280BD1012000210324404262
:105A800000F0CCFC644228000BF0BAFB200070BD93
:105A9000002001F0F1FA0028EED0210032000020B1
:105AA00001F0F6FA041EEED1033CECE70122054BAF
:105AB0005242D6E703246442E8E7C04640420F0062
:105AC0003C370020FFFFFF7FF8B5DE46574680B524
:105AD00005000C00FCF732FC0023364A12184B413B
